{
  "address": "0xaA282C4E86beFda4a1E7C9c06165869026D27852",
  "abi": [
    {
      "anonymous": false,
      "inputs": [
        {
          "indexed": true,
          "internalType": "address",
          "name": "from",
          "type": "address"
        },
        {
          "indexed": true,
          "internalType": "address",
          "name": "to",
          "type": "address"
        },
        {
          "indexed": false,
          "internalType": "uint256",
          "name": "amount",
          "type": "uint256"
        }
      ],
      "name": "ZkSyncEthDepositInitiated",
      "type": "event"
    },
    {
      "stateMutability": "payable",
      "type": "fallback"
    },
    {
      "inputs": [],
      "name": "baseL1Bridge",
      "outputs": [
        {
          "internalType": "contract OvmL1Bridge",
          "name": "",
          "type": "address"
        }
      ],
      "stateMutability": "view",
      "type": "function"
    },
    {
      "inputs": [],
      "name": "bobaL1Bridge",
      "outputs": [
        {
          "internalType": "contract OvmL1Bridge",
          "name": "",
          "type": "address"
        }
      ],
      "stateMutability": "view",
      "type": "function"
    },
    {
      "inputs": [
        {
          "internalType": "address",
          "name": "to",
          "type": "address"
        },
        {
          "internalType": "uint256",
          "name": "amount",
          "type": "uint256"
        },
        {
          "internalType": "uint32",
          "name": "l2Gas",
          "type": "uint32"
        },
        {
          "internalType": "uint256",
          "name": "chainId",
          "type": "uint256"
        }
      ],
      "name": "bridgeWethToOvm",
      "outputs": [],
      "stateMutability": "nonpayable",
      "type": "function"
    },
    {
      "inputs": [
        {
          "internalType": "address",
          "name": "to",
          "type": "address"
        },
        {
          "internalType": "uint256",
          "name": "amount",
          "type": "uint256"
        }
      ],
      "name": "bridgeWethToPolygon",
      "outputs": [],
      "stateMutability": "nonpayable",
      "type": "function"
    },
    {
      "inputs": [
        {
          "internalType": "address",
          "name": "to",
          "type": "address"
        },
        {
          "internalType": "uint256",
          "name": "amount",
          "type": "uint256"
        },
        {
          "internalType": "uint256",
          "name": "l2GasLimit",
          "type": "uint256"
        },
        {
          "internalType": "uint256",
          "name": "l2GasPerPubdataByteLimit",
          "type": "uint256"
        },
        {
          "internalType": "address",
          "name": "refundRecipient",
          "type": "address"
        }
      ],
      "name": "bridgeWethToZkSync",
      "outputs": [],
      "stateMutability": "nonpayable",
      "type": "function"
    },
    {
      "inputs": [],
      "name": "optimismL1Bridge",
      "outputs": [
        {
          "internalType": "contract OvmL1Bridge",
          "name": "",
          "type": "address"
        }
      ],
      "stateMutability": "view",
      "type": "function"
    },
    {
      "inputs": [],
      "name": "polygonL1Bridge",
      "outputs": [
        {
          "internalType": "contract PolygonL1Bridge",
          "name": "",
          "type": "address"
        }
      ],
      "stateMutability": "view",
      "type": "function"
    },
    {
      "inputs": [],
      "name": "weth",
      "outputs": [
        {
          "internalType": "contract Weth",
          "name": "",
          "type": "address"
        }
      ],
      "stateMutability": "view",
      "type": "function"
    },
    {
      "inputs": [],
      "name": "zkSyncL1Bridge",
      "outputs": [
        {
          "internalType": "contract ZkSyncL1Bridge",
          "name": "",
          "type": "address"
        }
      ],
      "stateMutability": "view",
      "type": "function"
    },
    {
      "stateMutability": "payable",
      "type": "receive"
    }
  ],
  "transactionHash": "0x2b534fcf44aa7d96be9db59543ba866916d0e21d921948f1871b96b7a05f3be8",
  "args": [],
  "numDeployments": 1,
  "solcInputHash": "5c785432cfb35b0626411450852e3748",
  "bytecode": "0x61014080604052346101235773c02aaa39b223fe8d0a0e5c4f27ead9083c756cc26080527399c9fc46f92e8a1c0dec1b1747d010903e884be160a05273dc1664458d2f0b6090bea60a8793a4e66c2f1c0060c052733154cf16ccdb4c6d922629664174b904d80f2c3560e0526101009073a0c68c638235ee32657e8f720a23cec1bfc77c7782526101207332400084c286cf3e17e7b677ea9583e60a0003248152610e789283610129843960805183818160f001528181610628015281816108590152610962015260a0518381816101cc01526104cf015260c0518381816103490152610daf015260e0518381816102a601526105ad01525182818161053e01526106f90152518181816107ea0152818161092401528181610a600152610b220152f35b600080fdfe6080806040526004908136101561001d575b5050361561001b57005b005b600090813560e01c908163019f8e8114610d6557508063128d5f681461087d5780633fc8cef31461080e5780635970eafa1461079f578063b3d5ccc3146105d1578063b745c3f314610562578063c80dcc38146104f3578063d3cdc8f9146104845763e88650c40361001157346102865760807ffffffffffffffffffffffffffffffffffffffffffffffffffffffffffffffffc360112610286576100c0610dd7565b916024359060443563ffffffff811681036104805773ffffffffffffffffffffffffffffffffffffffff946064357f00000000000000000000000000000000000000000000000000000000000000008716803b1561045d57604080517f23b872dd0000000000000000000000000000000000000000000000000000000081523387820190815230602082015291820188905290889082908190606001038183865af1801561047557908891610461575b5050803b1561045d578680916024604051809481937f2e1a7d4d0000000000000000000000000000000000000000000000000000000083528b8b8401525af180156104525790879161043e575b5050600a8103610298575084957f00000000000000000000000000000000000000000000000000000000000000001690813b1561029457610263948694604051968795869485937f9a2ac6d500000000000000000000000000000000000000000000000000000000855284019060809273ffffffffffffffffffffffffffffffffffffffff63ffffffff9216835216602082015260606040820152600060608201520190565b03925af180156102895761027657505080f35b61027f90610dff565b6102865780f35b80fd5b6040513d84823e3d90fd5b8580fd5b612105810361033d575084957f00000000000000000000000000000000000000000000000000000000000000001690813b1561029457610263948694604051968795869485937f9a2ac6d500000000000000000000000000000000000000000000000000000000855284019060809273ffffffffffffffffffffffffffffffffffffffff63ffffffff9216835216602082015260606040820152600060608201520190565b610120036103e05784957f00000000000000000000000000000000000000000000000000000000000000001690813b1561029457610263948694604051968795869485937f9a2ac6d500000000000000000000000000000000000000000000000000000000855284019060809273ffffffffffffffffffffffffffffffffffffffff63ffffffff9216835216602082015260606040820152600060608201520190565b6064836020604051917f08c379a0000000000000000000000000000000000000000000000000000000008352820152601360248201527f496e76616c6964204f564d20636861696e4964000000000000000000000000006044820152fd5b61044790610dff565b6102945785386101bd565b6040513d89823e3d90fd5b8680fd5b61046a90610dff565b61045d578638610170565b6040513d8a823e3d90fd5b8380fd5b503461028657807ffffffffffffffffffffffffffffffffffffffffffffffffffffffffffffffffc36011261028657602060405173ffffffffffffffffffffffffffffffffffffffff7f0000000000000000000000000000000000000000000000000000000000000000168152f35b503461028657807ffffffffffffffffffffffffffffffffffffffffffffffffffffffffffffffffc36011261028657602060405173ffffffffffffffffffffffffffffffffffffffff7f0000000000000000000000000000000000000000000000000000000000000000168152f35b503461028657807ffffffffffffffffffffffffffffffffffffffffffffffffffffffffffffffffc36011261028657602060405173ffffffffffffffffffffffffffffffffffffffff7f0000000000000000000000000000000000000000000000000000000000000000168152f35b5080913461079c5760407ffffffffffffffffffffffffffffffffffffffffffffffffffffffffffffffffc36011261079c5761060b610dd7565b6024359073ffffffffffffffffffffffffffffffffffffffff90817f000000000000000000000000000000000000000000000000000000000000000016803b1561029457604080517f23b872dd0000000000000000000000000000000000000000000000000000000081523387820190815230602082015291820186905290879082908190606001038183865af1908115610452578791610788575b5050803b15610294578580916024604051809481937f2e1a7d4d000000000000000000000000000000000000000000000000000000008352898b8401525af190811561077d578691610765575b5050817f00000000000000000000000000000000000000000000000000000000000000001690813b1561029457859360249260405196879586947f4faa8a2600000000000000000000000000000000000000000000000000000000865216908401525af18015610289576102765750f35b61076e90610dff565b6107795784386106f4565b8480fd5b6040513d88823e3d90fd5b61079190610dff565b6102945785386106a7565b50fd5b503461028657807ffffffffffffffffffffffffffffffffffffffffffffffffffffffffffffffffc36011261028657602060405173ffffffffffffffffffffffffffffffffffffffff7f0000000000000000000000000000000000000000000000000000000000000000168152f35b503461028657807ffffffffffffffffffffffffffffffffffffffffffffffffffffffffffffffffc36011261028657602060405173ffffffffffffffffffffffffffffffffffffffff7f0000000000000000000000000000000000000000000000000000000000000000168152f35b50346102865760a07ffffffffffffffffffffffffffffffffffffffffffffffffffffffffffffffffc360112610286576108b5610dd7565b91604435606435936084359273ffffffffffffffffffffffffffffffffffffffff9283851680950361029457604051907fb473318e0000000000000000000000000000000000000000000000000000000082523a838301526024958187840152886044840152602083606481897f0000000000000000000000000000000000000000000000000000000000000000165afa928315610475578893610cd2575b50863583018311610ca757857f000000000000000000000000000000000000000000000000000000000000000016803b15610c8557604080517f23b872dd000000000000000000000000000000000000000000000000000000008152338782019081523060208201528a35870192810192909252908a9082908190606001038183865af18015610c9c57610c89575b50803b15610c855788809189604051809481937f2e1a7d4d00000000000000000000000000000000000000000000000000000000835283358a018b8401525af18015610c7a57908991610c66575b505060405191602083019280841067ffffffffffffffff851117610c3957899a8460409b98999a9b52878252897f0000000000000000000000000000000000000000000000000000000000000000163b15610c355760409a989695949a99979951957feb6724190000000000000000000000000000000000000000000000000000000087528888169087015288358987015260e060448701528960e48701526101048601926064870152608486015261010060a48601525180915261012490818501918160051b860101999189905b828210610b97575050505082809281808b8b979560c4899701520391893501887f0000000000000000000000000000000000000000000000000000000000000000165af1801561028957610b83575b50506040519235835216907fa3e601130860a6f97b42655ad74f631ddf0c8e5adaa98402fded9c09bc35a44060203392a380f35b610b8c90610dff565b610480578385610b4f565b7ffffffffffffffffffffffffffffffffffffffffffffffffffffffffffffffedc878d969596030181528b855180518092528c5b828110610c1f575050808d0160209081018d9052601f919091017fffffffffffffffffffffffffffffffffffffffffffffffffffffffffffffffe016909c018c019b93948401936001929092019101610b00565b808f602082818095870101519201015201610bcb565b8780fd5b886041877f4e487b7100000000000000000000000000000000000000000000000000000000600052526000fd5b610c6f90610dff565b610c35578738610a31565b6040513d8b823e3d90fd5b8880fd5b610c9590999199610dff565b97386109e3565b6040513d8c823e3d90fd5b86886011867f4e487b7100000000000000000000000000000000000000000000000000000000835252fd5b90925060203d602011610d5e575b7fffffffffffffffffffffffffffffffffffffffffffffffffffffffffffffffe0601f820116820182811067ffffffffffffffff821117610d3357602091839160405281010312610c3557519138610954565b888a6041887f4e487b7100000000000000000000000000000000000000000000000000000000835252fd5b503d610ce0565b905034610dd357817ffffffffffffffffffffffffffffffffffffffffffffffffffffffffffffffffc360112610dd35760209073ffffffffffffffffffffffffffffffffffffffff7f0000000000000000000000000000000000000000000000000000000000000000168152f35b5080fd5b6004359073ffffffffffffffffffffffffffffffffffffffff82168203610dfa57565b600080fd5b67ffffffffffffffff8111610e1357604052565b7f4e487b7100000000000000000000000000000000000000000000000000000000600052604160045260246000fdfea264697066735822122054f15f095a639ca8c1c971d3a9b339c996a6842a1e61f7c9de8575771cdd982364736f6c63430008120033",
  "devdoc": {
    "kind": "dev",
    "methods": {},
    "version": 1
  },
  "userdoc": {
    "kind": "user",
    "methods": {},
    "notice": "Contract deployed on Ethereum helps relay bots atomically unwrap and bridge WETH over the canonical chain bridges for OVM chains, ZkSync and Polygon. Needed as these chains only support bridging of ETH, not WETH.",
    "version": 1
  },
  "storageLayout": {
    "storage": [],
    "types": null
  }
}