{
  "address": "0xD59d70d887F34669BA695Fe9ABb8848b70de6171",
  "abi": [
    {
      "anonymous": false,
      "inputs": [
        {
          "indexed": true,
          "internalType": "address",
          "name": "from",
          "type": "address"
        },
        {
          "indexed": true,
          "internalType": "address",
          "name": "to",
          "type": "address"
        },
        {
          "indexed": false,
          "internalType": "uint256",
          "name": "amount",
          "type": "uint256"
        }
      ],
      "name": "LineaEthDepositInitiated",
      "type": "event"
    },
    {
      "anonymous": false,
      "inputs": [
        {
          "indexed": true,
          "internalType": "uint256",
          "name": "chainId",
          "type": "uint256"
        },
        {
          "indexed": true,
          "internalType": "address",
          "name": "from",
          "type": "address"
        },
        {
          "indexed": true,
          "internalType": "address",
          "name": "to",
          "type": "address"
        },
        {
          "indexed": false,
          "internalType": "uint256",
          "name": "amount",
          "type": "uint256"
        }
      ],
      "name": "OvmEthDepositInitiated",
      "type": "event"
    },
    {
      "anonymous": false,
      "inputs": [
        {
          "indexed": true,
          "internalType": "address",
          "name": "from",
          "type": "address"
        },
        {
          "indexed": true,
          "internalType": "address",
          "name": "to",
          "type": "address"
        },
        {
          "indexed": false,
          "internalType": "uint256",
          "name": "amount",
          "type": "uint256"
        }
      ],
      "name": "ZkSyncEthDepositInitiated",
      "type": "event"
    },
    {
      "stateMutability": "payable",
      "type": "fallback"
    },
    {
      "inputs": [],
      "name": "baseL1Bridge",
      "outputs": [
        {
          "internalType": "contract OvmL1Bridge",
          "name": "",
          "type": "address"
        }
      ],
      "stateMutability": "view",
      "type": "function"
    },
    {
      "inputs": [],
      "name": "blastL1Bridge",
      "outputs": [
        {
          "internalType": "contract OvmL1Bridge",
          "name": "",
          "type": "address"
        }
      ],
      "stateMutability": "view",
      "type": "function"
    },
    {
      "inputs": [],
      "name": "bobaL1Bridge",
      "outputs": [
        {
          "internalType": "contract OvmL1Bridge",
          "name": "",
          "type": "address"
        }
      ],
      "stateMutability": "view",
      "type": "function"
    },
    {
      "inputs": [
        {
          "internalType": "address",
          "name": "to",
          "type": "address"
        },
        {
          "internalType": "uint256",
          "name": "amount",
          "type": "uint256"
        }
      ],
      "name": "bridgeWethToLinea",
      "outputs": [],
      "stateMutability": "payable",
      "type": "function"
    },
    {
      "inputs": [
        {
          "internalType": "address",
          "name": "to",
          "type": "address"
        },
        {
          "internalType": "uint256",
          "name": "amount",
          "type": "uint256"
        },
        {
          "internalType": "uint32",
          "name": "l2Gas",
          "type": "uint32"
        },
        {
          "internalType": "uint256",
          "name": "chainId",
          "type": "uint256"
        }
      ],
      "name": "bridgeWethToOvm",
      "outputs": [],
      "stateMutability": "nonpayable",
      "type": "function"
    },
    {
      "inputs": [
        {
          "internalType": "address",
          "name": "to",
          "type": "address"
        },
        {
          "internalType": "uint256",
          "name": "amount",
          "type": "uint256"
        }
      ],
      "name": "bridgeWethToPolygon",
      "outputs": [],
      "stateMutability": "nonpayable",
      "type": "function"
    },
    {
      "inputs": [
        {
          "internalType": "address",
          "name": "to",
          "type": "address"
        },
        {
          "internalType": "uint256",
          "name": "amount",
          "type": "uint256"
        },
        {
          "internalType": "uint256",
          "name": "l2GasLimit",
          "type": "uint256"
        },
        {
          "internalType": "uint256",
          "name": "l2GasPerPubdataByteLimit",
          "type": "uint256"
        },
        {
          "internalType": "address",
          "name": "refundRecipient",
          "type": "address"
        }
      ],
      "name": "bridgeWethToZkSync",
      "outputs": [],
      "stateMutability": "nonpayable",
      "type": "function"
    },
    {
      "inputs": [],
      "name": "cherL1Bridge",
      "outputs": [
        {
          "internalType": "contract OvmL1Bridge",
          "name": "",
          "type": "address"
        }
      ],
      "stateMutability": "view",
      "type": "function"
    },
    {
      "inputs": [],
      "name": "doctorWhoL1Bridge",
      "outputs": [
        {
          "internalType": "contract OvmL1Bridge",
          "name": "",
          "type": "address"
        }
      ],
      "stateMutability": "view",
      "type": "function"
    },
    {
      "inputs": [],
      "name": "inkL1Bridge",
      "outputs": [
        {
          "internalType": "contract OvmL1Bridge",
          "name": "",
          "type": "address"
        }
      ],
      "stateMutability": "view",
      "type": "function"
    },
    {
      "inputs": [],
      "name": "lineaL1MessageService",
      "outputs": [
        {
          "internalType": "contract LineaL1MessageService",
          "name": "",
          "type": "address"
        }
      ],
      "stateMutability": "view",
      "type": "function"
    },
    {
      "inputs": [],
      "name": "liskL1Bridge",
      "outputs": [
        {
          "internalType": "contract OvmL1Bridge",
          "name": "",
          "type": "address"
        }
      ],
      "stateMutability": "view",
      "type": "function"
    },
    {
      "inputs": [],
      "name": "modeL1Bridge",
      "outputs": [
        {
          "internalType": "contract OvmL1Bridge",
          "name": "",
          "type": "address"
        }
      ],
      "stateMutability": "view",
      "type": "function"
    },
    {
      "inputs": [],
      "name": "optimismL1Bridge",
      "outputs": [
        {
          "internalType": "contract OvmL1Bridge",
          "name": "",
          "type": "address"
        }
      ],
      "stateMutability": "view",
      "type": "function"
    },
    {
      "inputs": [],
      "name": "polygonL1Bridge",
      "outputs": [
        {
          "internalType": "contract PolygonL1Bridge",
          "name": "",
          "type": "address"
        }
      ],
      "stateMutability": "view",
      "type": "function"
    },
    {
      "inputs": [],
      "name": "redstoneL1Bridge",
      "outputs": [
        {
          "internalType": "contract OvmL1Bridge",
          "name": "",
          "type": "address"
        }
      ],
      "stateMutability": "view",
      "type": "function"
    },
    {
      "inputs": [],
      "name": "weth",
      "outputs": [
        {
          "internalType": "contract Weth",
          "name": "",
          "type": "address"
        }
      ],
      "stateMutability": "view",
      "type": "function"
    },
    {
      "inputs": [],
      "name": "worldChainL1Bridge",
      "outputs": [
        {
          "internalType": "contract OvmL1Bridge",
          "name": "",
          "type": "address"
        }
      ],
      "stateMutability": "view",
      "type": "function"
    },
    {
      "inputs": [],
      "name": "zkSyncL1Bridge",
      "outputs": [
        {
          "internalType": "contract ZkSyncL1Bridge",
          "name": "",
          "type": "address"
        }
      ],
      "stateMutability": "view",
      "type": "function"
    },
    {
      "inputs": [],
      "name": "zoraL1Bridge",
      "outputs": [
        {
          "internalType": "contract OvmL1Bridge",
          "name": "",
          "type": "address"
        }
      ],
      "stateMutability": "view",
      "type": "function"
    },
    {
      "stateMutability": "payable",
      "type": "receive"
    }
  ],
  "transactionHash": "0x9a35cf9ef837f9ba151e4298756584b2bec2b3cc94ea2a5f897e3b18cd0dc41d",
  "args": [],
  "numDeployments": 2,
  "solcInputHash": "7095cb2ac075e899237564ebc82cedbc",
  "bytecode": "0x61028080604052346102c15773c02aaa39b223fe8d0a0e5c4f27ead9083c756cc26080527399c9fc46f92e8a1c0dec1b1747d010903e884be160a05273735adbbe72226bd52e818e7181953f42e3b0ff2160c05273dc1664458d2f0b6090bea60a8793a4e66c2f1c0060e05261010090733154cf16ccdb4c6d922629664174b904d80f2c35825261012073eb9bf100225c214efc3e7c651ebbadcf8517760781526101407381014f44b0a345033bb2b3b21c7a1a308b35feea81526101607388ff1e5b602916615391f55854588efcbb7663f08152610180732658723bf70c7667de6b25f99fcce13a16d25d0881526101a073c473ca7e02af24c129c2eef51f2adf0411c1df6981526101c073697402166fbf2f22e970df8a6486ef171dbfc52481526101e09173470458c91978d2d929704489ad730dc3e3001113835261020093733e2ea9b92b7e48a52296fd261dc26fd99528463185526102209573a0c68c638235ee32657e8f720a23cec1bfc77c778752610240977332400084c286cf3e17e7b677ea9583e60a00032489526102609973d19d4b5d358258f05d7b411e21a1460d11b0876f8b52611b7e9c8d8d6102c690396080518d81816101e701528181610e930152818161130a01528181611380015261169a015260a0518d81816102c00152610bee015260c0518d818161049c01526110df015260e0518d8181610a670152611a860152518c81816103ce0152610daa0152518b818161072c015261129b0152518a81816109bd01526110700152518981816105e40152610d3b01525188818161015401526106880152518781816108750152610e190152518681816107d1015261114e015251858181610540015261159101525184818161091a015261122c015251838181610c5d0152610f640152518281816111bd0152818161165a01528181611790015261184f015251818181610ccc01526114510152f35b5f80fdfe6080806040526004908136101561001d575b5050361561001b57005b005b5f915f3560e01c918263019f8e8114611a3e57508163128d5f68146115b55781632a8ecb131461154657816336918a971461132e5781633fc8cef3146112bf5781634711149e146112505781634fbf95d7146111e15781635970eafa1461117257816362c8eb5c14611103578163645b6f11146110945781639d4fae381461102557828263b3d5ccc314610e3d57508163b6865d6e14610dce578163b745c3f314610d5f578163b9597e5914610cf0578163c04b953414610c81578163c80dcc3814610c12578163d3cdc8f914610ba3578163e88650c41461017b575063f43873c41461010a5780610011565b3461017857807ffffffffffffffffffffffffffffffffffffffffffffffffffffffffffffffffc36011261017857602060405173ffffffffffffffffffffffffffffffffffffffff7f0000000000000000000000000000000000000000000000000000000000000000168152f35b80fd5b905034610b9f5760807ffffffffffffffffffffffffffffffffffffffffffffffffffffffffffffffffc360112610b9f576101b4611aaa565b604435916024359163ffffffff841684036103af57846064359473ffffffffffffffffffffffffffffffffffffffff93847f000000000000000000000000000000000000000000000000000000000000000016803b156103be57604080517f23b872dd0000000000000000000000000000000000000000000000000000000081523384820190815230602082015291820189905290859082908190606001038183865af1908115610b94578591610b80575b5050803b156103be578380916024604051809481937f2e1a7d4d0000000000000000000000000000000000000000000000000000000083528c888401525af1908115610b75578491610b5d575b5050600a87036103c257847f00000000000000000000000000000000000000000000000000000000000000001691823b156103be576103589285888694604051968795869485937f9a2ac6d500000000000000000000000000000000000000000000000000000000855284019060809273ffffffffffffffffffffffffffffffffffffffff63ffffffff92168352166020820152606060408201525f60608201520190565b03925af180156103b35761039b575b50505b60405192835216917fcde53d24289bf7d0b2baeea6140c533d8388fb574b055364d718f637bedea7a460203393a480f35b6103a490611acd565b6103af57845f610367565b8480fd5b6040513d84823e3d90fd5b8380fd5b612105870361049057847f00000000000000000000000000000000000000000000000000000000000000001691823b156103be576104669285888694604051968795869485937f9a2ac6d500000000000000000000000000000000000000000000000000000000855284019060809273ffffffffffffffffffffffffffffffffffffffff63ffffffff92168352166020820152606060408201525f60608201520190565b03925af180156103b35761047c575b505061036a565b61048590611acd565b6103af57845f610475565b61868b870361053457847f00000000000000000000000000000000000000000000000000000000000000001691823b156103be576104669285888694604051968795869485937f9a2ac6d500000000000000000000000000000000000000000000000000000000855284019060809273ffffffffffffffffffffffffffffffffffffffff63ffffffff92168352166020820152606060408201525f60608201520190565b6101e087036105d857847f00000000000000000000000000000000000000000000000000000000000000001691823b156103be576104669285888694604051968795869485937f9a2ac6d500000000000000000000000000000000000000000000000000000000855284019060809273ffffffffffffffffffffffffffffffffffffffff63ffffffff92168352166020820152606060408201525f60608201520190565b61def1870361067c57847f00000000000000000000000000000000000000000000000000000000000000001691823b156103be576104669285888694604051968795869485937f9a2ac6d500000000000000000000000000000000000000000000000000000000855284019060809273ffffffffffffffffffffffffffffffffffffffff63ffffffff92168352166020820152606060408201525f60608201520190565b61046f870361072057847f00000000000000000000000000000000000000000000000000000000000000001691823b156103be576104669285888694604051968795869485937f9a2ac6d500000000000000000000000000000000000000000000000000000000855284019060809273ffffffffffffffffffffffffffffffffffffffff63ffffffff92168352166020820152606060408201525f60608201520190565b61074c87036107c457847f00000000000000000000000000000000000000000000000000000000000000001691823b156103be576104669285888694604051968795869485937f9a2ac6d500000000000000000000000000000000000000000000000000000000855284019060809273ffffffffffffffffffffffffffffffffffffffff63ffffffff92168352166020820152606060408201525f60608201520190565b62013e31870361086957847f00000000000000000000000000000000000000000000000000000000000000001691823b156103be576104669285888694604051968795869485937f9a2ac6d500000000000000000000000000000000000000000000000000000000855284019060809273ffffffffffffffffffffffffffffffffffffffff63ffffffff92168352166020820152606060408201525f60608201520190565b6102b2870361090d57847f00000000000000000000000000000000000000000000000000000000000000001691823b156103be576104669285888694604051968795869485937f9a2ac6d500000000000000000000000000000000000000000000000000000000855284019060809273ffffffffffffffffffffffffffffffffffffffff63ffffffff92168352166020820152606060408201525f60608201520190565b6276adf187036109b257847f00000000000000000000000000000000000000000000000000000000000000001691823b156103be576104669285888694604051968795869485937f9a2ac6d500000000000000000000000000000000000000000000000000000000855284019060809273ffffffffffffffffffffffffffffffffffffffff63ffffffff92168352166020820152606060408201525f60608201520190565b60828703610a5557847f00000000000000000000000000000000000000000000000000000000000000001691823b156103be576104669285888694604051968795869485937f9a2ac6d500000000000000000000000000000000000000000000000000000000855284019060809273ffffffffffffffffffffffffffffffffffffffff63ffffffff92168352166020820152606060408201525f60608201520190565b9091506101208603610aff57908691847f00000000000000000000000000000000000000000000000000000000000000001691823b156103be576104669285888694604051968795869485937f9a2ac6d500000000000000000000000000000000000000000000000000000000855284019060809273ffffffffffffffffffffffffffffffffffffffff63ffffffff92168352166020820152606060408201525f60608201520190565b6064906020604051917f08c379a0000000000000000000000000000000000000000000000000000000008352820152601360248201527f496e76616c6964204f564d20636861696e4964000000000000000000000000006044820152fd5b610b6690611acd565b610b7157825f6102b3565b8280fd5b6040513d86823e3d90fd5b610b8990611acd565b6103be57835f610266565b6040513d87823e3d90fd5b5080fd5b823461017857807ffffffffffffffffffffffffffffffffffffffffffffffffffffffffffffffffc36011261017857602060405173ffffffffffffffffffffffffffffffffffffffff7f0000000000000000000000000000000000000000000000000000000000000000168152f35b823461017857807ffffffffffffffffffffffffffffffffffffffffffffffffffffffffffffffffc36011261017857602060405173ffffffffffffffffffffffffffffffffffffffff7f0000000000000000000000000000000000000000000000000000000000000000168152f35b823461017857807ffffffffffffffffffffffffffffffffffffffffffffffffffffffffffffffffc36011261017857602060405173ffffffffffffffffffffffffffffffffffffffff7f0000000000000000000000000000000000000000000000000000000000000000168152f35b823461017857807ffffffffffffffffffffffffffffffffffffffffffffffffffffffffffffffffc36011261017857602060405173ffffffffffffffffffffffffffffffffffffffff7f0000000000000000000000000000000000000000000000000000000000000000168152f35b823461017857807ffffffffffffffffffffffffffffffffffffffffffffffffffffffffffffffffc36011261017857602060405173ffffffffffffffffffffffffffffffffffffffff7f0000000000000000000000000000000000000000000000000000000000000000168152f35b823461017857807ffffffffffffffffffffffffffffffffffffffffffffffffffffffffffffffffc36011261017857602060405173ffffffffffffffffffffffffffffffffffffffff7f0000000000000000000000000000000000000000000000000000000000000000168152f35b9150346110225760407ffffffffffffffffffffffffffffffffffffffffffffffffffffffffffffffffc36011261102257610e76611aaa565b6024359073ffffffffffffffffffffffffffffffffffffffff90817f000000000000000000000000000000000000000000000000000000000000000016803b15610fe057604080517f23b872dd0000000000000000000000000000000000000000000000000000000081523387820190815230602082015291820186905290879082908190606001038183865af1908115611017578791611003575b5050803b15610fe0578580916024604051809481937f2e1a7d4d000000000000000000000000000000000000000000000000000000008352898b8401525af1908115610ff8578691610fe4575b5050817f00000000000000000000000000000000000000000000000000000000000000001690813b15610fe057859360249260405196879586947f4faa8a2600000000000000000000000000000000000000000000000000000000865216908401525af180156103b357610fd05750f35b610fd990611acd565b6101785780f35b8580fd5b610fed90611acd565b6103af57845f610f5f565b6040513d88823e3d90fd5b61100c90611acd565b610fe057855f610f12565b6040513d89823e3d90fd5b50fd5b823461017857807ffffffffffffffffffffffffffffffffffffffffffffffffffffffffffffffffc36011261017857602060405173ffffffffffffffffffffffffffffffffffffffff7f0000000000000000000000000000000000000000000000000000000000000000168152f35b823461017857807ffffffffffffffffffffffffffffffffffffffffffffffffffffffffffffffffc36011261017857602060405173ffffffffffffffffffffffffffffffffffffffff7f0000000000000000000000000000000000000000000000000000000000000000168152f35b823461017857807ffffffffffffffffffffffffffffffffffffffffffffffffffffffffffffffffc36011261017857602060405173ffffffffffffffffffffffffffffffffffffffff7f0000000000000000000000000000000000000000000000000000000000000000168152f35b823461017857807ffffffffffffffffffffffffffffffffffffffffffffffffffffffffffffffffc36011261017857602060405173ffffffffffffffffffffffffffffffffffffffff7f0000000000000000000000000000000000000000000000000000000000000000168152f35b823461017857807ffffffffffffffffffffffffffffffffffffffffffffffffffffffffffffffffc36011261017857602060405173ffffffffffffffffffffffffffffffffffffffff7f0000000000000000000000000000000000000000000000000000000000000000168152f35b823461017857807ffffffffffffffffffffffffffffffffffffffffffffffffffffffffffffffffc36011261017857602060405173ffffffffffffffffffffffffffffffffffffffff7f0000000000000000000000000000000000000000000000000000000000000000168152f35b823461017857807ffffffffffffffffffffffffffffffffffffffffffffffffffffffffffffffffc36011261017857602060405173ffffffffffffffffffffffffffffffffffffffff7f0000000000000000000000000000000000000000000000000000000000000000168152f35b905060407ffffffffffffffffffffffffffffffffffffffffffffffffffffffffffffffffc360112610b9f57611362611aaa565b826024359173ffffffffffffffffffffffffffffffffffffffff90817f000000000000000000000000000000000000000000000000000000000000000016803b156103be57604080517f23b872dd0000000000000000000000000000000000000000000000000000000081523388820190815230602082015291820187905290859082908190606001038183865af1908115610b94578591611532575b5050803b156103be578380916024604051809481937f2e1a7d4d0000000000000000000000000000000000000000000000000000000083528a8c8401525af1908115610b7557849161151e575b5050817f0000000000000000000000000000000000000000000000000000000000000000169161147c3486611b0e565b833b156103af57849260849160405195869485937f9f3ce55a00000000000000000000000000000000000000000000000000000000855216809a840152346024840152606060448401528560648401525af180156103b35761150a575b50506040519081527f61ed67a945fe5f4d777919629ad666c7e81d66dc5fbaf4c143edd000c15d67dd60203392a380f35b61151390611acd565b610b7157825f6114d9565b61152790611acd565b610b7157825f61144c565b61153b90611acd565b6103be57835f6113ff565b823461017857807ffffffffffffffffffffffffffffffffffffffffffffffffffffffffffffffffc36011261017857602060405173ffffffffffffffffffffffffffffffffffffffff7f0000000000000000000000000000000000000000000000000000000000000000168152f35b82346119d25760a07ffffffffffffffffffffffffffffffffffffffffffffffffffffffffffffffffc3601126119d2576115ed611aaa565b602490604435906064359460843573ffffffffffffffffffffffffffffffffffffffff938482168092036119d2576040517fb473318e0000000000000000000000000000000000000000000000000000000081523a848201528187820152886044820152602081606481897f0000000000000000000000000000000000000000000000000000000000000000165afa80156119c7575f906119d6575b6116969150873590611b0e565b91857f000000000000000000000000000000000000000000000000000000000000000016803b156119d257604080517f23b872dd00000000000000000000000000000000000000000000000000000000815233878201908152306020820152918201869052905f9082908190606001038183865af180156119c7576119b4575b50803b156119b05788809189604051809481937f2e1a7d4d000000000000000000000000000000000000000000000000000000008352898b8401525af180156119a557908991611991575b505060405191602083019280841067ffffffffffffffff85111761196657899a8460409b98999a9b52878252897f0000000000000000000000000000000000000000000000000000000000000000163b156119625760409a989695949a99979951957feb6724190000000000000000000000000000000000000000000000000000000087528888169087015288358987015260e060448701528960e48701526101048601926064870152608486015261010060a48601525180915261012490818501918160051b860101999189905b8282106118c4575050505082809281808b8b979560c4899701520391887f0000000000000000000000000000000000000000000000000000000000000000165af180156103b3576118b0575b50506040519235835216907fa3e601130860a6f97b42655ad74f631ddf0c8e5adaa98402fded9c09bc35a44060203392a380f35b6118b990611acd565b6103be57838561187c565b7ffffffffffffffffffffffffffffffffffffffffffffffffffffffffffffffedc878d969596030181528b855180518092528c5b82811061194c575050808d0160209081018d9052601f919091017fffffffffffffffffffffffffffffffffffffffffffffffffffffffffffffffe016909c018c019b93948401936001929092019101611830565b808f6020828180958701015192010152016118f8565b8780fd5b886041877f4e487b71000000000000000000000000000000000000000000000000000000005f52525ffd5b61199a90611acd565b61196257878a611761565b6040513d8b823e3d90fd5b8880fd5b6119bf919950611acd565b5f978a611716565b6040513d5f823e3d90fd5b5f80fd5b5060203d602011611a37575b7fffffffffffffffffffffffffffffffffffffffffffffffffffffffffffffffe0601f820116820182811067ffffffffffffffff821117611966576020918391604052810103126119d2576116969051611689565b503d6119e2565b346119d2575f7ffffffffffffffffffffffffffffffffffffffffffffffffffffffffffffffffc3601126119d25760209073ffffffffffffffffffffffffffffffffffffffff7f0000000000000000000000000000000000000000000000000000000000000000168152f35b6004359073ffffffffffffffffffffffffffffffffffffffff821682036119d257565b67ffffffffffffffff8111611ae157604052565b7f4e487b71000000000000000000000000000000000000000000000000000000005f52604160045260245ffd5b91908201809211611b1b57565b7f4e487b71000000000000000000000000000000000000000000000000000000005f52601160045260245ffdfea2646970667358221220c405acb50dc7a73f942567cc34d0cfe8d7526679cf1acb2a203e90fa950a49a564736f6c63430008170033"
}