{
  "address": "0xfa52a9DCF51695EA2777E6908d6401481850c391",
  "abi": [
    {
      "anonymous": false,
      "inputs": [
        {
          "indexed": true,
          "internalType": "address",
          "name": "from",
          "type": "address"
        },
        {
          "indexed": true,
          "internalType": "address",
          "name": "to",
          "type": "address"
        },
        {
          "indexed": false,
          "internalType": "uint256",
          "name": "amount",
          "type": "uint256"
        }
      ],
      "name": "LineaEthDepositInitiated",
      "type": "event"
    },
    {
      "anonymous": false,
      "inputs": [
        {
          "indexed": true,
          "internalType": "uint256",
          "name": "chainId",
          "type": "uint256"
        },
        {
          "indexed": true,
          "internalType": "address",
          "name": "from",
          "type": "address"
        },
        {
          "indexed": true,
          "internalType": "address",
          "name": "to",
          "type": "address"
        },
        {
          "indexed": false,
          "internalType": "uint256",
          "name": "amount",
          "type": "uint256"
        }
      ],
      "name": "OvmEthDepositInitiated",
      "type": "event"
    },
    {
      "anonymous": false,
      "inputs": [
        {
          "indexed": true,
          "internalType": "address",
          "name": "from",
          "type": "address"
        },
        {
          "indexed": true,
          "internalType": "address",
          "name": "to",
          "type": "address"
        },
        {
          "indexed": false,
          "internalType": "uint256",
          "name": "amount",
          "type": "uint256"
        }
      ],
      "name": "ZkSyncEthDepositInitiated",
      "type": "event"
    },
    {
      "stateMutability": "payable",
      "type": "fallback"
    },
    {
      "inputs": [],
      "name": "baseL1Bridge",
      "outputs": [
        {
          "internalType": "contract OvmL1Bridge",
          "name": "",
          "type": "address"
        }
      ],
      "stateMutability": "view",
      "type": "function"
    },
    {
      "inputs": [],
      "name": "blastL1Bridge",
      "outputs": [
        {
          "internalType": "contract OvmL1Bridge",
          "name": "",
          "type": "address"
        }
      ],
      "stateMutability": "view",
      "type": "function"
    },
    {
      "inputs": [],
      "name": "bobaL1Bridge",
      "outputs": [
        {
          "internalType": "contract OvmL1Bridge",
          "name": "",
          "type": "address"
        }
      ],
      "stateMutability": "view",
      "type": "function"
    },
    {
      "inputs": [
        {
          "internalType": "address",
          "name": "to",
          "type": "address"
        },
        {
          "internalType": "uint256",
          "name": "amount",
          "type": "uint256"
        }
      ],
      "name": "bridgeWethToLinea",
      "outputs": [],
      "stateMutability": "payable",
      "type": "function"
    },
    {
      "inputs": [
        {
          "internalType": "address",
          "name": "to",
          "type": "address"
        },
        {
          "internalType": "uint256",
          "name": "amount",
          "type": "uint256"
        },
        {
          "internalType": "uint32",
          "name": "l2Gas",
          "type": "uint32"
        },
        {
          "internalType": "uint256",
          "name": "chainId",
          "type": "uint256"
        }
      ],
      "name": "bridgeWethToOvm",
      "outputs": [],
      "stateMutability": "nonpayable",
      "type": "function"
    },
    {
      "inputs": [
        {
          "internalType": "address",
          "name": "to",
          "type": "address"
        },
        {
          "internalType": "uint256",
          "name": "amount",
          "type": "uint256"
        }
      ],
      "name": "bridgeWethToPolygon",
      "outputs": [],
      "stateMutability": "nonpayable",
      "type": "function"
    },
    {
      "inputs": [
        {
          "internalType": "address",
          "name": "to",
          "type": "address"
        },
        {
          "internalType": "uint256",
          "name": "amount",
          "type": "uint256"
        },
        {
          "internalType": "uint256",
          "name": "l2GasLimit",
          "type": "uint256"
        },
        {
          "internalType": "uint256",
          "name": "l2GasPerPubdataByteLimit",
          "type": "uint256"
        },
        {
          "internalType": "address",
          "name": "refundRecipient",
          "type": "address"
        }
      ],
      "name": "bridgeWethToZkSync",
      "outputs": [],
      "stateMutability": "nonpayable",
      "type": "function"
    },
    {
      "inputs": [],
      "name": "lineaL1MessageService",
      "outputs": [
        {
          "internalType": "contract LineaL1MessageService",
          "name": "",
          "type": "address"
        }
      ],
      "stateMutability": "view",
      "type": "function"
    },
    {
      "inputs": [],
      "name": "liskL1Bridge",
      "outputs": [
        {
          "internalType": "contract OvmL1Bridge",
          "name": "",
          "type": "address"
        }
      ],
      "stateMutability": "view",
      "type": "function"
    },
    {
      "inputs": [],
      "name": "modeL1Bridge",
      "outputs": [
        {
          "internalType": "contract OvmL1Bridge",
          "name": "",
          "type": "address"
        }
      ],
      "stateMutability": "view",
      "type": "function"
    },
    {
      "inputs": [],
      "name": "optimismL1Bridge",
      "outputs": [
        {
          "internalType": "contract OvmL1Bridge",
          "name": "",
          "type": "address"
        }
      ],
      "stateMutability": "view",
      "type": "function"
    },
    {
      "inputs": [],
      "name": "polygonL1Bridge",
      "outputs": [
        {
          "internalType": "contract PolygonL1Bridge",
          "name": "",
          "type": "address"
        }
      ],
      "stateMutability": "view",
      "type": "function"
    },
    {
      "inputs": [],
      "name": "weth",
      "outputs": [
        {
          "internalType": "contract Weth",
          "name": "",
          "type": "address"
        }
      ],
      "stateMutability": "view",
      "type": "function"
    },
    {
      "inputs": [],
      "name": "zkSyncL1Bridge",
      "outputs": [
        {
          "internalType": "contract ZkSyncL1Bridge",
          "name": "",
          "type": "address"
        }
      ],
      "stateMutability": "view",
      "type": "function"
    },
    {
      "stateMutability": "payable",
      "type": "receive"
    }
  ],
  "transactionHash": "0x5f105ab20992208cfe3ad27e9abe8e3bd1f9e265bb75719633ae10543110b682",
  "args": [],
  "numDeployments": 6,
  "solcInputHash": "9e2546c9a25f1566d7cda23de27622e1",
  "bytecode": "0x6101c080604052346101cd5773c02aaa39b223fe8d0a0e5c4f27ead9083c756cc26080527399c9fc46f92e8a1c0dec1b1747d010903e884be160a05273735adbbe72226bd52e818e7181953f42e3b0ff2160c05273dc1664458d2f0b6090bea60a8793a4e66c2f1c0060e05261010090733154cf16ccdb4c6d922629664174b904d80f2c358252610120732658723bf70c7667de6b25f99fcce13a16d25d08815261014073697402166fbf2f22e970df8a6486ef171dbfc524815261016073a0c68c638235ee32657e8f720a23cec1bfc77c778152610180917332400084c286cf3e17e7b677ea9583e60a00032483526101a09373d19d4b5d358258f05d7b411e21a1460d11b0876f85526114ca96876101d288396080518781816101a50152818161099b01528181610cc501528181610d3b0152610fe6015260a05187818161027e01526107d4015260c05187818161045a0152610b78015260e05187818161064d01526113d201525186818161038c015261092101525185818161011201526104fe0152518481816105a30152610be70152518381816108430152610a6c015251828181610c5601528181610fa6015281816110dc015261119b0152518181816108b20152610e0c0152f35b5f80fdfe6080806040526004908136101561001d575b5050361561001b57005b005b5f915f3560e01c918263019f8e811461138a57508163128d5f6814610f0157816336918a9714610ce95781633fc8cef314610c7a5781635970eafa14610c0b57816362c8eb5c14610b9c578163645b6f1114610b2d57828263b3d5ccc31461094557508163b745c3f3146108d6578163c04b953414610867578163c80dcc38146107f8578163d3cdc8f914610789578163e88650c414610139575063f43873c4146100c85780610011565b3461013657807ffffffffffffffffffffffffffffffffffffffffffffffffffffffffffffffffc36011261013657602060405173ffffffffffffffffffffffffffffffffffffffff7f0000000000000000000000000000000000000000000000000000000000000000168152f35b80fd5b9050346107855760807ffffffffffffffffffffffffffffffffffffffffffffffffffffffffffffffffc360112610785576101726113f6565b604435916024359163ffffffff8416840361036d57846064359473ffffffffffffffffffffffffffffffffffffffff93847f000000000000000000000000000000000000000000000000000000000000000016803b1561037c57604080517f23b872dd0000000000000000000000000000000000000000000000000000000081523384820190815230602082015291820189905290859082908190606001038183865af190811561077a578591610766575b5050803b1561037c578380916024604051809481937f2e1a7d4d0000000000000000000000000000000000000000000000000000000083528c888401525af190811561075b578491610743575b5050600a870361038057847f00000000000000000000000000000000000000000000000000000000000000001691823b1561037c576103169285888694604051968795869485937f9a2ac6d500000000000000000000000000000000000000000000000000000000855284019060809273ffffffffffffffffffffffffffffffffffffffff63ffffffff92168352166020820152606060408201525f60608201520190565b03925af1801561037157610359575b50505b60405192835216917fcde53d24289bf7d0b2baeea6140c533d8388fb574b055364d718f637bedea7a460203393a480f35b61036290611419565b61036d57845f610325565b8480fd5b6040513d84823e3d90fd5b8380fd5b612105870361044e57847f00000000000000000000000000000000000000000000000000000000000000001691823b1561037c576104249285888694604051968795869485937f9a2ac6d500000000000000000000000000000000000000000000000000000000855284019060809273ffffffffffffffffffffffffffffffffffffffff63ffffffff92168352166020820152606060408201525f60608201520190565b03925af180156103715761043a575b5050610328565b61044390611419565b61036d57845f610433565b61868b87036104f257847f00000000000000000000000000000000000000000000000000000000000000001691823b1561037c576104249285888694604051968795869485937f9a2ac6d500000000000000000000000000000000000000000000000000000000855284019060809273ffffffffffffffffffffffffffffffffffffffff63ffffffff92168352166020820152606060408201525f60608201520190565b61046f870361059657847f00000000000000000000000000000000000000000000000000000000000000001691823b1561037c576104249285888694604051968795869485937f9a2ac6d500000000000000000000000000000000000000000000000000000000855284019060809273ffffffffffffffffffffffffffffffffffffffff63ffffffff92168352166020820152606060408201525f60608201520190565b62013e31870361063b57847f00000000000000000000000000000000000000000000000000000000000000001691823b1561037c576104249285888694604051968795869485937f9a2ac6d500000000000000000000000000000000000000000000000000000000855284019060809273ffffffffffffffffffffffffffffffffffffffff63ffffffff92168352166020820152606060408201525f60608201520190565b90915061012086036106e557908691847f00000000000000000000000000000000000000000000000000000000000000001691823b1561037c576104249285888694604051968795869485937f9a2ac6d500000000000000000000000000000000000000000000000000000000855284019060809273ffffffffffffffffffffffffffffffffffffffff63ffffffff92168352166020820152606060408201525f60608201520190565b6064906020604051917f08c379a0000000000000000000000000000000000000000000000000000000008352820152601360248201527f496e76616c6964204f564d20636861696e4964000000000000000000000000006044820152fd5b61074c90611419565b61075757825f610271565b8280fd5b6040513d86823e3d90fd5b61076f90611419565b61037c57835f610224565b6040513d87823e3d90fd5b5080fd5b823461013657807ffffffffffffffffffffffffffffffffffffffffffffffffffffffffffffffffc36011261013657602060405173ffffffffffffffffffffffffffffffffffffffff7f0000000000000000000000000000000000000000000000000000000000000000168152f35b823461013657807ffffffffffffffffffffffffffffffffffffffffffffffffffffffffffffffffc36011261013657602060405173ffffffffffffffffffffffffffffffffffffffff7f0000000000000000000000000000000000000000000000000000000000000000168152f35b823461013657807ffffffffffffffffffffffffffffffffffffffffffffffffffffffffffffffffc36011261013657602060405173ffffffffffffffffffffffffffffffffffffffff7f0000000000000000000000000000000000000000000000000000000000000000168152f35b823461013657807ffffffffffffffffffffffffffffffffffffffffffffffffffffffffffffffffc36011261013657602060405173ffffffffffffffffffffffffffffffffffffffff7f0000000000000000000000000000000000000000000000000000000000000000168152f35b915034610b2a5760407ffffffffffffffffffffffffffffffffffffffffffffffffffffffffffffffffc360112610b2a5761097e6113f6565b6024359073ffffffffffffffffffffffffffffffffffffffff90817f000000000000000000000000000000000000000000000000000000000000000016803b15610ae857604080517f23b872dd0000000000000000000000000000000000000000000000000000000081523387820190815230602082015291820186905290879082908190606001038183865af1908115610b1f578791610b0b575b5050803b15610ae8578580916024604051809481937f2e1a7d4d000000000000000000000000000000000000000000000000000000008352898b8401525af1908115610b00578691610aec575b5050817f00000000000000000000000000000000000000000000000000000000000000001690813b15610ae857859360249260405196879586947f4faa8a2600000000000000000000000000000000000000000000000000000000865216908401525af1801561037157610ad85750f35b610ae190611419565b6101365780f35b8580fd5b610af590611419565b61036d57845f610a67565b6040513d88823e3d90fd5b610b1490611419565b610ae857855f610a1a565b6040513d89823e3d90fd5b50fd5b823461013657807ffffffffffffffffffffffffffffffffffffffffffffffffffffffffffffffffc36011261013657602060405173ffffffffffffffffffffffffffffffffffffffff7f0000000000000000000000000000000000000000000000000000000000000000168152f35b823461013657807ffffffffffffffffffffffffffffffffffffffffffffffffffffffffffffffffc36011261013657602060405173ffffffffffffffffffffffffffffffffffffffff7f0000000000000000000000000000000000000000000000000000000000000000168152f35b823461013657807ffffffffffffffffffffffffffffffffffffffffffffffffffffffffffffffffc36011261013657602060405173ffffffffffffffffffffffffffffffffffffffff7f0000000000000000000000000000000000000000000000000000000000000000168152f35b823461013657807ffffffffffffffffffffffffffffffffffffffffffffffffffffffffffffffffc36011261013657602060405173ffffffffffffffffffffffffffffffffffffffff7f0000000000000000000000000000000000000000000000000000000000000000168152f35b905060407ffffffffffffffffffffffffffffffffffffffffffffffffffffffffffffffffc36011261078557610d1d6113f6565b826024359173ffffffffffffffffffffffffffffffffffffffff90817f000000000000000000000000000000000000000000000000000000000000000016803b1561037c57604080517f23b872dd0000000000000000000000000000000000000000000000000000000081523388820190815230602082015291820187905290859082908190606001038183865af190811561077a578591610eed575b5050803b1561037c578380916024604051809481937f2e1a7d4d0000000000000000000000000000000000000000000000000000000083528a8c8401525af190811561075b578491610ed9575b5050817f00000000000000000000000000000000000000000000000000000000000000001691610e37348661145a565b833b1561036d57849260849160405195869485937f9f3ce55a00000000000000000000000000000000000000000000000000000000855216809a840152346024840152606060448401528560648401525af1801561037157610ec5575b50506040519081527f61ed67a945fe5f4d777919629ad666c7e81d66dc5fbaf4c143edd000c15d67dd60203392a380f35b610ece90611419565b61075757825f610e94565b610ee290611419565b61075757825f610e07565b610ef690611419565b61037c57835f610dba565b823461131e5760a07ffffffffffffffffffffffffffffffffffffffffffffffffffffffffffffffffc36011261131e57610f396113f6565b602490604435906064359460843573ffffffffffffffffffffffffffffffffffffffff9384821680920361131e576040517fb473318e0000000000000000000000000000000000000000000000000000000081523a848201528187820152886044820152602081606481897f0000000000000000000000000000000000000000000000000000000000000000165afa8015611313575f90611322575b610fe2915087359061145a565b91857f000000000000000000000000000000000000000000000000000000000000000016803b1561131e57604080517f23b872dd00000000000000000000000000000000000000000000000000000000815233878201908152306020820152918201869052905f9082908190606001038183865af1801561131357611300575b50803b156112fc5788809189604051809481937f2e1a7d4d000000000000000000000000000000000000000000000000000000008352898b8401525af180156112f1579089916112dd575b505060405191602083019280841067ffffffffffffffff8511176112b257899a8460409b98999a9b52878252897f0000000000000000000000000000000000000000000000000000000000000000163b156112ae5760409a989695949a99979951957feb6724190000000000000000000000000000000000000000000000000000000087528888169087015288358987015260e060448701528960e48701526101048601926064870152608486015261010060a48601525180915261012490818501918160051b860101999189905b828210611210575050505082809281808b8b979560c4899701520391887f0000000000000000000000000000000000000000000000000000000000000000165af18015610371576111fc575b50506040519235835216907fa3e601130860a6f97b42655ad74f631ddf0c8e5adaa98402fded9c09bc35a44060203392a380f35b61120590611419565b61037c5783856111c8565b7ffffffffffffffffffffffffffffffffffffffffffffffffffffffffffffffedc878d969596030181528b855180518092528c5b828110611298575050808d0160209081018d9052601f919091017fffffffffffffffffffffffffffffffffffffffffffffffffffffffffffffffe016909c018c019b9394840193600192909201910161117c565b808f602082818095870101519201015201611244565b8780fd5b886041877f4e487b71000000000000000000000000000000000000000000000000000000005f52525ffd5b6112e690611419565b6112ae57878a6110ad565b6040513d8b823e3d90fd5b8880fd5b61130b919950611419565b5f978a611062565b6040513d5f823e3d90fd5b5f80fd5b5060203d602011611383575b7fffffffffffffffffffffffffffffffffffffffffffffffffffffffffffffffe0601f820116820182811067ffffffffffffffff8211176112b25760209183916040528101031261131e57610fe29051610fd5565b503d61132e565b3461131e575f7ffffffffffffffffffffffffffffffffffffffffffffffffffffffffffffffffc36011261131e5760209073ffffffffffffffffffffffffffffffffffffffff7f0000000000000000000000000000000000000000000000000000000000000000168152f35b6004359073ffffffffffffffffffffffffffffffffffffffff8216820361131e57565b67ffffffffffffffff811161142d57604052565b7f4e487b71000000000000000000000000000000000000000000000000000000005f52604160045260245ffd5b9190820180921161146757565b7f4e487b71000000000000000000000000000000000000000000000000000000005f52601160045260245ffdfea264697066735822122046c66d3cff2c96505a3109a5894fced18683f62924094bd06b1cd36fe8289dcd64736f6c63430008170033"
}