{
  "address": "0xb505EB8E884cA548508bd7806631b6C1BC25C1f8",
  "abi": [
    {
      "anonymous": false,
      "inputs": [
        {
          "indexed": true,
          "internalType": "address",
          "name": "from",
          "type": "address"
        },
        {
          "indexed": true,
          "internalType": "address",
          "name": "to",
          "type": "address"
        },
        {
          "indexed": false,
          "internalType": "uint256",
          "name": "amount",
          "type": "uint256"
        }
      ],
      "name": "LineaEthDepositInitiated",
      "type": "event"
    },
    {
      "anonymous": false,
      "inputs": [
        {
          "indexed": true,
          "internalType": "uint256",
          "name": "chainId",
          "type": "uint256"
        },
        {
          "indexed": true,
          "internalType": "address",
          "name": "from",
          "type": "address"
        },
        {
          "indexed": true,
          "internalType": "address",
          "name": "to",
          "type": "address"
        },
        {
          "indexed": false,
          "internalType": "uint256",
          "name": "amount",
          "type": "uint256"
        }
      ],
      "name": "OvmEthDepositInitiated",
      "type": "event"
    },
    {
      "anonymous": false,
      "inputs": [
        {
          "indexed": true,
          "internalType": "address",
          "name": "from",
          "type": "address"
        },
        {
          "indexed": true,
          "internalType": "address",
          "name": "to",
          "type": "address"
        },
        {
          "indexed": false,
          "internalType": "uint256",
          "name": "amount",
          "type": "uint256"
        }
      ],
      "name": "ZkSyncEthDepositInitiated",
      "type": "event"
    },
    {
      "stateMutability": "payable",
      "type": "fallback"
    },
    {
      "inputs": [],
      "name": "baseL1Bridge",
      "outputs": [
        {
          "internalType": "contract OvmL1Bridge",
          "name": "",
          "type": "address"
        }
      ],
      "stateMutability": "view",
      "type": "function"
    },
    {
      "inputs": [],
      "name": "blastL1Bridge",
      "outputs": [
        {
          "internalType": "contract OvmL1Bridge",
          "name": "",
          "type": "address"
        }
      ],
      "stateMutability": "view",
      "type": "function"
    },
    {
      "inputs": [],
      "name": "bobaL1Bridge",
      "outputs": [
        {
          "internalType": "contract OvmL1Bridge",
          "name": "",
          "type": "address"
        }
      ],
      "stateMutability": "view",
      "type": "function"
    },
    {
      "inputs": [
        {
          "internalType": "address",
          "name": "to",
          "type": "address"
        },
        {
          "internalType": "uint256",
          "name": "amount",
          "type": "uint256"
        }
      ],
      "name": "bridgeWethToLinea",
      "outputs": [],
      "stateMutability": "payable",
      "type": "function"
    },
    {
      "inputs": [
        {
          "internalType": "address",
          "name": "to",
          "type": "address"
        },
        {
          "internalType": "uint256",
          "name": "amount",
          "type": "uint256"
        },
        {
          "internalType": "uint32",
          "name": "l2Gas",
          "type": "uint32"
        },
        {
          "internalType": "uint256",
          "name": "chainId",
          "type": "uint256"
        }
      ],
      "name": "bridgeWethToOvm",
      "outputs": [],
      "stateMutability": "nonpayable",
      "type": "function"
    },
    {
      "inputs": [
        {
          "internalType": "address",
          "name": "to",
          "type": "address"
        },
        {
          "internalType": "uint256",
          "name": "amount",
          "type": "uint256"
        }
      ],
      "name": "bridgeWethToPolygon",
      "outputs": [],
      "stateMutability": "nonpayable",
      "type": "function"
    },
    {
      "inputs": [
        {
          "internalType": "address",
          "name": "to",
          "type": "address"
        },
        {
          "internalType": "uint256",
          "name": "amount",
          "type": "uint256"
        },
        {
          "internalType": "uint256",
          "name": "l2GasLimit",
          "type": "uint256"
        },
        {
          "internalType": "uint256",
          "name": "l2GasPerPubdataByteLimit",
          "type": "uint256"
        },
        {
          "internalType": "address",
          "name": "refundRecipient",
          "type": "address"
        }
      ],
      "name": "bridgeWethToZkSync",
      "outputs": [],
      "stateMutability": "nonpayable",
      "type": "function"
    },
    {
      "inputs": [],
      "name": "inkL1Bridge",
      "outputs": [
        {
          "internalType": "contract OvmL1Bridge",
          "name": "",
          "type": "address"
        }
      ],
      "stateMutability": "view",
      "type": "function"
    },
    {
      "inputs": [],
      "name": "lineaL1MessageService",
      "outputs": [
        {
          "internalType": "contract LineaL1MessageService",
          "name": "",
          "type": "address"
        }
      ],
      "stateMutability": "view",
      "type": "function"
    },
    {
      "inputs": [],
      "name": "liskL1Bridge",
      "outputs": [
        {
          "internalType": "contract OvmL1Bridge",
          "name": "",
          "type": "address"
        }
      ],
      "stateMutability": "view",
      "type": "function"
    },
    {
      "inputs": [],
      "name": "modeL1Bridge",
      "outputs": [
        {
          "internalType": "contract OvmL1Bridge",
          "name": "",
          "type": "address"
        }
      ],
      "stateMutability": "view",
      "type": "function"
    },
    {
      "inputs": [],
      "name": "optimismL1Bridge",
      "outputs": [
        {
          "internalType": "contract OvmL1Bridge",
          "name": "",
          "type": "address"
        }
      ],
      "stateMutability": "view",
      "type": "function"
    },
    {
      "inputs": [],
      "name": "polygonL1Bridge",
      "outputs": [
        {
          "internalType": "contract PolygonL1Bridge",
          "name": "",
          "type": "address"
        }
      ],
      "stateMutability": "view",
      "type": "function"
    },
    {
      "inputs": [],
      "name": "redstoneL1Bridge",
      "outputs": [
        {
          "internalType": "contract OvmL1Bridge",
          "name": "",
          "type": "address"
        }
      ],
      "stateMutability": "view",
      "type": "function"
    },
    {
      "inputs": [],
      "name": "weth",
      "outputs": [
        {
          "internalType": "contract Weth",
          "name": "",
          "type": "address"
        }
      ],
      "stateMutability": "view",
      "type": "function"
    },
    {
      "inputs": [],
      "name": "worldChainL1Bridge",
      "outputs": [
        {
          "internalType": "contract OvmL1Bridge",
          "name": "",
          "type": "address"
        }
      ],
      "stateMutability": "view",
      "type": "function"
    },
    {
      "inputs": [],
      "name": "zkSyncL1Bridge",
      "outputs": [
        {
          "internalType": "contract ZkSyncL1Bridge",
          "name": "",
          "type": "address"
        }
      ],
      "stateMutability": "view",
      "type": "function"
    },
    {
      "inputs": [],
      "name": "zoraL1Bridge",
      "outputs": [
        {
          "internalType": "contract OvmL1Bridge",
          "name": "",
          "type": "address"
        }
      ],
      "stateMutability": "view",
      "type": "function"
    },
    {
      "stateMutability": "payable",
      "type": "receive"
    }
  ],
  "transactionHash": "0x553f75e9b913cad6f61de7a7a139d8c5952862b7507bedd5608fe2199af17259",
  "args": [],
  "numDeployments": 10,
  "solcInputHash": "68cb79cd539c6a9785b32ed27fb708b7",
  "bytecode": "0x610240806040523461026f5773c02aaa39b223fe8d0a0e5c4f27ead9083c756cc26080527399c9fc46f92e8a1c0dec1b1747d010903e884be160a05273735adbbe72226bd52e818e7181953f42e3b0ff2160c05273dc1664458d2f0b6090bea60a8793a4e66c2f1c0060e05261010090733154cf16ccdb4c6d922629664174b904d80f2c3582526101207388ff1e5b602916615391f55854588efcbb7663f08152610140732658723bf70c7667de6b25f99fcce13a16d25d08815261016073c473ca7e02af24c129c2eef51f2adf0411c1df69815261018073697402166fbf2f22e970df8a6486ef171dbfc52481526101a073470458c91978d2d929704489ad730dc3e300111381526101c091733e2ea9b92b7e48a52296fd261dc26fd99528463183526101e09373a0c68c638235ee32657e8f720a23cec1bfc77c778552610200957332400084c286cf3e17e7b677ea9583e60a00032487526102209773d19d4b5d358258f05d7b411e21a1460d11b0876f89526119439a8b6102748c396080518b81816101d101528181610d36015281816110cf01528181611145015261145f015260a0518b81816102aa0152610a91015260c0518b81816104860152610f13015260e0518b818161090a015261184b0152518a81816103b80152610c4d0152518981816105ce0152610bde01525188818161013e01526106720152518781816107bb0152610cbc0152518681816107170152610f8201525185818161052a01526113560152518481816108600152611060015251838181610b000152610e07015251828181610ff10152818161141f015281816115550152611614015251818181610b6f01526112160152f35b5f80fdfe6080806040526004908136101561001d575b5050361561001b57005b005b5f915f3560e01c918263019f8e811461180357508163128d5f681461137a5781632a8ecb131461130b57816336918a97146110f35781633fc8cef3146110845781634fbf95d7146110155781635970eafa14610fa657816362c8eb5c14610f37578163645b6f1114610ec857828263b3d5ccc314610ce057508163b6865d6e14610c71578163b745c3f314610c02578163b9597e5914610b93578163c04b953414610b24578163c80dcc3814610ab5578163d3cdc8f914610a46578163e88650c414610165575063f43873c4146100f45780610011565b3461016257807ffffffffffffffffffffffffffffffffffffffffffffffffffffffffffffffffc36011261016257602060405173ffffffffffffffffffffffffffffffffffffffff7f0000000000000000000000000000000000000000000000000000000000000000168152f35b80fd5b905034610a425760807ffffffffffffffffffffffffffffffffffffffffffffffffffffffffffffffffc360112610a425761019e61186f565b604435916024359163ffffffff8416840361039957846064359473ffffffffffffffffffffffffffffffffffffffff93847f000000000000000000000000000000000000000000000000000000000000000016803b156103a857604080517f23b872dd0000000000000000000000000000000000000000000000000000000081523384820190815230602082015291820189905290859082908190606001038183865af1908115610a37578591610a23575b5050803b156103a8578380916024604051809481937f2e1a7d4d0000000000000000000000000000000000000000000000000000000083528c888401525af1908115610a18578491610a00575b5050600a87036103ac57847f00000000000000000000000000000000000000000000000000000000000000001691823b156103a8576103429285888694604051968795869485937f9a2ac6d500000000000000000000000000000000000000000000000000000000855284019060809273ffffffffffffffffffffffffffffffffffffffff63ffffffff92168352166020820152606060408201525f60608201520190565b03925af1801561039d57610385575b50505b60405192835216917fcde53d24289bf7d0b2baeea6140c533d8388fb574b055364d718f637bedea7a460203393a480f35b61038e90611892565b61039957845f610351565b8480fd5b6040513d84823e3d90fd5b8380fd5b612105870361047a57847f00000000000000000000000000000000000000000000000000000000000000001691823b156103a8576104509285888694604051968795869485937f9a2ac6d500000000000000000000000000000000000000000000000000000000855284019060809273ffffffffffffffffffffffffffffffffffffffff63ffffffff92168352166020820152606060408201525f60608201520190565b03925af1801561039d57610466575b5050610354565b61046f90611892565b61039957845f61045f565b61868b870361051e57847f00000000000000000000000000000000000000000000000000000000000000001691823b156103a8576104509285888694604051968795869485937f9a2ac6d500000000000000000000000000000000000000000000000000000000855284019060809273ffffffffffffffffffffffffffffffffffffffff63ffffffff92168352166020820152606060408201525f60608201520190565b6101e087036105c257847f00000000000000000000000000000000000000000000000000000000000000001691823b156103a8576104509285888694604051968795869485937f9a2ac6d500000000000000000000000000000000000000000000000000000000855284019060809273ffffffffffffffffffffffffffffffffffffffff63ffffffff92168352166020820152606060408201525f60608201520190565b61def1870361066657847f00000000000000000000000000000000000000000000000000000000000000001691823b156103a8576104509285888694604051968795869485937f9a2ac6d500000000000000000000000000000000000000000000000000000000855284019060809273ffffffffffffffffffffffffffffffffffffffff63ffffffff92168352166020820152606060408201525f60608201520190565b61046f870361070a57847f00000000000000000000000000000000000000000000000000000000000000001691823b156103a8576104509285888694604051968795869485937f9a2ac6d500000000000000000000000000000000000000000000000000000000855284019060809273ffffffffffffffffffffffffffffffffffffffff63ffffffff92168352166020820152606060408201525f60608201520190565b62013e3187036107af57847f00000000000000000000000000000000000000000000000000000000000000001691823b156103a8576104509285888694604051968795869485937f9a2ac6d500000000000000000000000000000000000000000000000000000000855284019060809273ffffffffffffffffffffffffffffffffffffffff63ffffffff92168352166020820152606060408201525f60608201520190565b6102b2870361085357847f00000000000000000000000000000000000000000000000000000000000000001691823b156103a8576104509285888694604051968795869485937f9a2ac6d500000000000000000000000000000000000000000000000000000000855284019060809273ffffffffffffffffffffffffffffffffffffffff63ffffffff92168352166020820152606060408201525f60608201520190565b6276adf187036108f857847f00000000000000000000000000000000000000000000000000000000000000001691823b156103a8576104509285888694604051968795869485937f9a2ac6d500000000000000000000000000000000000000000000000000000000855284019060809273ffffffffffffffffffffffffffffffffffffffff63ffffffff92168352166020820152606060408201525f60608201520190565b90915061012086036109a257908691847f00000000000000000000000000000000000000000000000000000000000000001691823b156103a8576104509285888694604051968795869485937f9a2ac6d500000000000000000000000000000000000000000000000000000000855284019060809273ffffffffffffffffffffffffffffffffffffffff63ffffffff92168352166020820152606060408201525f60608201520190565b6064906020604051917f08c379a0000000000000000000000000000000000000000000000000000000008352820152601360248201527f496e76616c6964204f564d20636861696e4964000000000000000000000000006044820152fd5b610a0990611892565b610a1457825f61029d565b8280fd5b6040513d86823e3d90fd5b610a2c90611892565b6103a857835f610250565b6040513d87823e3d90fd5b5080fd5b823461016257807ffffffffffffffffffffffffffffffffffffffffffffffffffffffffffffffffc36011261016257602060405173ffffffffffffffffffffffffffffffffffffffff7f0000000000000000000000000000000000000000000000000000000000000000168152f35b823461016257807ffffffffffffffffffffffffffffffffffffffffffffffffffffffffffffffffc36011261016257602060405173ffffffffffffffffffffffffffffffffffffffff7f0000000000000000000000000000000000000000000000000000000000000000168152f35b823461016257807ffffffffffffffffffffffffffffffffffffffffffffffffffffffffffffffffc36011261016257602060405173ffffffffffffffffffffffffffffffffffffffff7f0000000000000000000000000000000000000000000000000000000000000000168152f35b823461016257807ffffffffffffffffffffffffffffffffffffffffffffffffffffffffffffffffc36011261016257602060405173ffffffffffffffffffffffffffffffffffffffff7f0000000000000000000000000000000000000000000000000000000000000000168152f35b823461016257807ffffffffffffffffffffffffffffffffffffffffffffffffffffffffffffffffc36011261016257602060405173ffffffffffffffffffffffffffffffffffffffff7f0000000000000000000000000000000000000000000000000000000000000000168152f35b823461016257807ffffffffffffffffffffffffffffffffffffffffffffffffffffffffffffffffc36011261016257602060405173ffffffffffffffffffffffffffffffffffffffff7f0000000000000000000000000000000000000000000000000000000000000000168152f35b915034610ec55760407ffffffffffffffffffffffffffffffffffffffffffffffffffffffffffffffffc360112610ec557610d1961186f565b6024359073ffffffffffffffffffffffffffffffffffffffff90817f000000000000000000000000000000000000000000000000000000000000000016803b15610e8357604080517f23b872dd0000000000000000000000000000000000000000000000000000000081523387820190815230602082015291820186905290879082908190606001038183865af1908115610eba578791610ea6575b5050803b15610e83578580916024604051809481937f2e1a7d4d000000000000000000000000000000000000000000000000000000008352898b8401525af1908115610e9b578691610e87575b5050817f00000000000000000000000000000000000000000000000000000000000000001690813b15610e8357859360249260405196879586947f4faa8a2600000000000000000000000000000000000000000000000000000000865216908401525af1801561039d57610e735750f35b610e7c90611892565b6101625780f35b8580fd5b610e9090611892565b61039957845f610e02565b6040513d88823e3d90fd5b610eaf90611892565b610e8357855f610db5565b6040513d89823e3d90fd5b50fd5b823461016257807ffffffffffffffffffffffffffffffffffffffffffffffffffffffffffffffffc36011261016257602060405173ffffffffffffffffffffffffffffffffffffffff7f0000000000000000000000000000000000000000000000000000000000000000168152f35b823461016257807ffffffffffffffffffffffffffffffffffffffffffffffffffffffffffffffffc36011261016257602060405173ffffffffffffffffffffffffffffffffffffffff7f0000000000000000000000000000000000000000000000000000000000000000168152f35b823461016257807ffffffffffffffffffffffffffffffffffffffffffffffffffffffffffffffffc36011261016257602060405173ffffffffffffffffffffffffffffffffffffffff7f0000000000000000000000000000000000000000000000000000000000000000168152f35b823461016257807ffffffffffffffffffffffffffffffffffffffffffffffffffffffffffffffffc36011261016257602060405173ffffffffffffffffffffffffffffffffffffffff7f0000000000000000000000000000000000000000000000000000000000000000168152f35b823461016257807ffffffffffffffffffffffffffffffffffffffffffffffffffffffffffffffffc36011261016257602060405173ffffffffffffffffffffffffffffffffffffffff7f0000000000000000000000000000000000000000000000000000000000000000168152f35b905060407ffffffffffffffffffffffffffffffffffffffffffffffffffffffffffffffffc360112610a425761112761186f565b826024359173ffffffffffffffffffffffffffffffffffffffff90817f000000000000000000000000000000000000000000000000000000000000000016803b156103a857604080517f23b872dd0000000000000000000000000000000000000000000000000000000081523388820190815230602082015291820187905290859082908190606001038183865af1908115610a375785916112f7575b5050803b156103a8578380916024604051809481937f2e1a7d4d0000000000000000000000000000000000000000000000000000000083528a8c8401525af1908115610a185784916112e3575b5050817f0000000000000000000000000000000000000000000000000000000000000000169161124134866118d3565b833b1561039957849260849160405195869485937f9f3ce55a00000000000000000000000000000000000000000000000000000000855216809a840152346024840152606060448401528560648401525af1801561039d576112cf575b50506040519081527f61ed67a945fe5f4d777919629ad666c7e81d66dc5fbaf4c143edd000c15d67dd60203392a380f35b6112d890611892565b610a1457825f61129e565b6112ec90611892565b610a1457825f611211565b61130090611892565b6103a857835f6111c4565b823461016257807ffffffffffffffffffffffffffffffffffffffffffffffffffffffffffffffffc36011261016257602060405173ffffffffffffffffffffffffffffffffffffffff7f0000000000000000000000000000000000000000000000000000000000000000168152f35b82346117975760a07ffffffffffffffffffffffffffffffffffffffffffffffffffffffffffffffffc360112611797576113b261186f565b602490604435906064359460843573ffffffffffffffffffffffffffffffffffffffff93848216809203611797576040517fb473318e0000000000000000000000000000000000000000000000000000000081523a848201528187820152886044820152602081606481897f0000000000000000000000000000000000000000000000000000000000000000165afa801561178c575f9061179b575b61145b91508735906118d3565b91857f000000000000000000000000000000000000000000000000000000000000000016803b1561179757604080517f23b872dd00000000000000000000000000000000000000000000000000000000815233878201908152306020820152918201869052905f9082908190606001038183865af1801561178c57611779575b50803b156117755788809189604051809481937f2e1a7d4d000000000000000000000000000000000000000000000000000000008352898b8401525af1801561176a57908991611756575b505060405191602083019280841067ffffffffffffffff85111761172b57899a8460409b98999a9b52878252897f0000000000000000000000000000000000000000000000000000000000000000163b156117275760409a989695949a99979951957feb6724190000000000000000000000000000000000000000000000000000000087528888169087015288358987015260e060448701528960e48701526101048601926064870152608486015261010060a48601525180915261012490818501918160051b860101999189905b828210611689575050505082809281808b8b979560c4899701520391887f0000000000000000000000000000000000000000000000000000000000000000165af1801561039d57611675575b50506040519235835216907fa3e601130860a6f97b42655ad74f631ddf0c8e5adaa98402fded9c09bc35a44060203392a380f35b61167e90611892565b6103a8578385611641565b7ffffffffffffffffffffffffffffffffffffffffffffffffffffffffffffffedc878d969596030181528b855180518092528c5b828110611711575050808d0160209081018d9052601f919091017fffffffffffffffffffffffffffffffffffffffffffffffffffffffffffffffe016909c018c019b939484019360019290920191016115f5565b808f6020828180958701015192010152016116bd565b8780fd5b886041877f4e487b71000000000000000000000000000000000000000000000000000000005f52525ffd5b61175f90611892565b61172757878a611526565b6040513d8b823e3d90fd5b8880fd5b611784919950611892565b5f978a6114db565b6040513d5f823e3d90fd5b5f80fd5b5060203d6020116117fc575b7fffffffffffffffffffffffffffffffffffffffffffffffffffffffffffffffe0601f820116820182811067ffffffffffffffff82111761172b576020918391604052810103126117975761145b905161144e565b503d6117a7565b34611797575f7ffffffffffffffffffffffffffffffffffffffffffffffffffffffffffffffffc3601126117975760209073ffffffffffffffffffffffffffffffffffffffff7f0000000000000000000000000000000000000000000000000000000000000000168152f35b6004359073ffffffffffffffffffffffffffffffffffffffff8216820361179757565b67ffffffffffffffff81116118a657604052565b7f4e487b71000000000000000000000000000000000000000000000000000000005f52604160045260245ffd5b919082018092116118e057565b7f4e487b71000000000000000000000000000000000000000000000000000000005f52601160045260245ffdfea26469706673582212205f7037abf5e15b3d8beb47a6151b22811d841628adba6392901c70bc78b1c89e64736f6c63430008170033"
}