{
  "address": "0xE48278aD2b9b402A8E3C2E0ffbaD7EEe3905bf94",
  "abi": [
    {
      "anonymous": false,
      "inputs": [
        {
          "indexed": true,
          "internalType": "address",
          "name": "from",
          "type": "address"
        },
        {
          "indexed": true,
          "internalType": "address",
          "name": "to",
          "type": "address"
        },
        {
          "indexed": false,
          "internalType": "uint256",
          "name": "amount",
          "type": "uint256"
        }
      ],
      "name": "LineaEthDepositInitiated",
      "type": "event"
    },
    {
      "anonymous": false,
      "inputs": [
        {
          "indexed": true,
          "internalType": "uint256",
          "name": "chainId",
          "type": "uint256"
        },
        {
          "indexed": true,
          "internalType": "address",
          "name": "from",
          "type": "address"
        },
        {
          "indexed": true,
          "internalType": "address",
          "name": "to",
          "type": "address"
        },
        {
          "indexed": false,
          "internalType": "uint256",
          "name": "amount",
          "type": "uint256"
        }
      ],
      "name": "OvmEthDepositInitiated",
      "type": "event"
    },
    {
      "anonymous": false,
      "inputs": [
        {
          "indexed": true,
          "internalType": "address",
          "name": "from",
          "type": "address"
        },
        {
          "indexed": true,
          "internalType": "address",
          "name": "to",
          "type": "address"
        },
        {
          "indexed": false,
          "internalType": "uint256",
          "name": "amount",
          "type": "uint256"
        }
      ],
      "name": "ZkSyncEthDepositInitiated",
      "type": "event"
    },
    {
      "stateMutability": "payable",
      "type": "fallback"
    },
    {
      "inputs": [],
      "name": "baseL1Bridge",
      "outputs": [
        {
          "internalType": "contract OvmL1Bridge",
          "name": "",
          "type": "address"
        }
      ],
      "stateMutability": "view",
      "type": "function"
    },
    {
      "inputs": [],
      "name": "blastL1Bridge",
      "outputs": [
        {
          "internalType": "contract OvmL1Bridge",
          "name": "",
          "type": "address"
        }
      ],
      "stateMutability": "view",
      "type": "function"
    },
    {
      "inputs": [],
      "name": "bobaL1Bridge",
      "outputs": [
        {
          "internalType": "contract OvmL1Bridge",
          "name": "",
          "type": "address"
        }
      ],
      "stateMutability": "view",
      "type": "function"
    },
    {
      "inputs": [
        {
          "internalType": "address",
          "name": "to",
          "type": "address"
        },
        {
          "internalType": "uint256",
          "name": "amount",
          "type": "uint256"
        }
      ],
      "name": "bridgeWethToLinea",
      "outputs": [],
      "stateMutability": "payable",
      "type": "function"
    },
    {
      "inputs": [
        {
          "internalType": "address",
          "name": "to",
          "type": "address"
        },
        {
          "internalType": "uint256",
          "name": "amount",
          "type": "uint256"
        },
        {
          "internalType": "uint32",
          "name": "l2Gas",
          "type": "uint32"
        },
        {
          "internalType": "uint256",
          "name": "chainId",
          "type": "uint256"
        }
      ],
      "name": "bridgeWethToOvm",
      "outputs": [],
      "stateMutability": "nonpayable",
      "type": "function"
    },
    {
      "inputs": [
        {
          "internalType": "address",
          "name": "to",
          "type": "address"
        },
        {
          "internalType": "uint256",
          "name": "amount",
          "type": "uint256"
        }
      ],
      "name": "bridgeWethToPolygon",
      "outputs": [],
      "stateMutability": "nonpayable",
      "type": "function"
    },
    {
      "inputs": [
        {
          "internalType": "address",
          "name": "to",
          "type": "address"
        },
        {
          "internalType": "uint256",
          "name": "amount",
          "type": "uint256"
        },
        {
          "internalType": "uint256",
          "name": "l2GasLimit",
          "type": "uint256"
        },
        {
          "internalType": "uint256",
          "name": "l2GasPerPubdataByteLimit",
          "type": "uint256"
        },
        {
          "internalType": "address",
          "name": "refundRecipient",
          "type": "address"
        }
      ],
      "name": "bridgeWethToZkSync",
      "outputs": [],
      "stateMutability": "nonpayable",
      "type": "function"
    },
    {
      "inputs": [],
      "name": "lineaL1MessageService",
      "outputs": [
        {
          "internalType": "contract LineaL1MessageService",
          "name": "",
          "type": "address"
        }
      ],
      "stateMutability": "view",
      "type": "function"
    },
    {
      "inputs": [],
      "name": "liskL1Bridge",
      "outputs": [
        {
          "internalType": "contract OvmL1Bridge",
          "name": "",
          "type": "address"
        }
      ],
      "stateMutability": "view",
      "type": "function"
    },
    {
      "inputs": [],
      "name": "modeL1Bridge",
      "outputs": [
        {
          "internalType": "contract OvmL1Bridge",
          "name": "",
          "type": "address"
        }
      ],
      "stateMutability": "view",
      "type": "function"
    },
    {
      "inputs": [],
      "name": "optimismL1Bridge",
      "outputs": [
        {
          "internalType": "contract OvmL1Bridge",
          "name": "",
          "type": "address"
        }
      ],
      "stateMutability": "view",
      "type": "function"
    },
    {
      "inputs": [],
      "name": "polygonL1Bridge",
      "outputs": [
        {
          "internalType": "contract PolygonL1Bridge",
          "name": "",
          "type": "address"
        }
      ],
      "stateMutability": "view",
      "type": "function"
    },
    {
      "inputs": [],
      "name": "redstoneL1Bridge",
      "outputs": [
        {
          "internalType": "contract OvmL1Bridge",
          "name": "",
          "type": "address"
        }
      ],
      "stateMutability": "view",
      "type": "function"
    },
    {
      "inputs": [],
      "name": "weth",
      "outputs": [
        {
          "internalType": "contract Weth",
          "name": "",
          "type": "address"
        }
      ],
      "stateMutability": "view",
      "type": "function"
    },
    {
      "inputs": [],
      "name": "zkSyncL1Bridge",
      "outputs": [
        {
          "internalType": "contract ZkSyncL1Bridge",
          "name": "",
          "type": "address"
        }
      ],
      "stateMutability": "view",
      "type": "function"
    },
    {
      "inputs": [],
      "name": "zoraL1Bridge",
      "outputs": [
        {
          "internalType": "contract OvmL1Bridge",
          "name": "",
          "type": "address"
        }
      ],
      "stateMutability": "view",
      "type": "function"
    },
    {
      "stateMutability": "payable",
      "type": "receive"
    }
  ],
  "transactionHash": "0xe66a3a0652de755c60dfb9631a85d0a691362b8b3168845b0a98e140976d8fc8",
  "args": [],
  "numDeployments": 8,
  "solcInputHash": "dfa1a8c5a6b030fb38fb617a6ddc8435",
  "bytecode": "0x610200806040523461021e5773c02aaa39b223fe8d0a0e5c4f27ead9083c756cc26080527399c9fc46f92e8a1c0dec1b1747d010903e884be160a05273735adbbe72226bd52e818e7181953f42e3b0ff2160c05273dc1664458d2f0b6090bea60a8793a4e66c2f1c0060e05261010090733154cf16ccdb4c6d922629664174b904d80f2c358252610120732658723bf70c7667de6b25f99fcce13a16d25d08815261014073c473ca7e02af24c129c2eef51f2adf0411c1df69815261016073697402166fbf2f22e970df8a6486ef171dbfc5248152610180733e2ea9b92b7e48a52296fd261dc26fd99528463181526101a09173a0c68c638235ee32657e8f720a23cec1bfc77c7783526101c0937332400084c286cf3e17e7b677ea9583e60a00032485526101e09573d19d4b5d358258f05d7b411e21a1460d11b0876f875261170798896102238a396080518981816101bb01528181610b6901528181610f0201528181610f780152611223015260a0518981816102940152610933015260c0518981816104700152610d46015260e0518981816107ac015261160f0152518881816103a20152610a80015251878181610128015261051401525186818161065d0152610aef0152518581816105b90152610db50152518481816107020152610e930152518381816109a20152610c3a015251828181610e24015281816111e30152818161131901526113d8015251818181610a1101526110490152f35b5f80fdfe6080806040526004908136101561001d575b5050361561001b57005b005b5f915f3560e01c918263019f8e81146115c757508163128d5f681461113e57816336918a9714610f265781633fc8cef314610eb75781634fbf95d714610e485781635970eafa14610dd957816362c8eb5c14610d6a578163645b6f1114610cfb57828263b3d5ccc314610b1357508163b6865d6e14610aa4578163b745c3f314610a35578163c04b9534146109c6578163c80dcc3814610957578163d3cdc8f9146108e8578163e88650c41461014f575063f43873c4146100de5780610011565b3461014c57807ffffffffffffffffffffffffffffffffffffffffffffffffffffffffffffffffc36011261014c57602060405173ffffffffffffffffffffffffffffffffffffffff7f0000000000000000000000000000000000000000000000000000000000000000168152f35b80fd5b9050346108e45760807ffffffffffffffffffffffffffffffffffffffffffffffffffffffffffffffffc3601126108e457610188611633565b604435916024359163ffffffff8416840361038357846064359473ffffffffffffffffffffffffffffffffffffffff93847f000000000000000000000000000000000000000000000000000000000000000016803b1561039257604080517f23b872dd0000000000000000000000000000000000000000000000000000000081523384820190815230602082015291820189905290859082908190606001038183865af19081156108d95785916108c5575b5050803b15610392578380916024604051809481937f2e1a7d4d0000000000000000000000000000000000000000000000000000000083528c888401525af19081156108ba5784916108a2575b5050600a870361039657847f00000000000000000000000000000000000000000000000000000000000000001691823b156103925761032c9285888694604051968795869485937f9a2ac6d500000000000000000000000000000000000000000000000000000000855284019060809273ffffffffffffffffffffffffffffffffffffffff63ffffffff92168352166020820152606060408201525f60608201520190565b03925af180156103875761036f575b50505b60405192835216917fcde53d24289bf7d0b2baeea6140c533d8388fb574b055364d718f637bedea7a460203393a480f35b61037890611656565b61038357845f61033b565b8480fd5b6040513d84823e3d90fd5b8380fd5b612105870361046457847f00000000000000000000000000000000000000000000000000000000000000001691823b156103925761043a9285888694604051968795869485937f9a2ac6d500000000000000000000000000000000000000000000000000000000855284019060809273ffffffffffffffffffffffffffffffffffffffff63ffffffff92168352166020820152606060408201525f60608201520190565b03925af1801561038757610450575b505061033e565b61045990611656565b61038357845f610449565b61868b870361050857847f00000000000000000000000000000000000000000000000000000000000000001691823b156103925761043a9285888694604051968795869485937f9a2ac6d500000000000000000000000000000000000000000000000000000000855284019060809273ffffffffffffffffffffffffffffffffffffffff63ffffffff92168352166020820152606060408201525f60608201520190565b61046f87036105ac57847f00000000000000000000000000000000000000000000000000000000000000001691823b156103925761043a9285888694604051968795869485937f9a2ac6d500000000000000000000000000000000000000000000000000000000855284019060809273ffffffffffffffffffffffffffffffffffffffff63ffffffff92168352166020820152606060408201525f60608201520190565b62013e31870361065157847f00000000000000000000000000000000000000000000000000000000000000001691823b156103925761043a9285888694604051968795869485937f9a2ac6d500000000000000000000000000000000000000000000000000000000855284019060809273ffffffffffffffffffffffffffffffffffffffff63ffffffff92168352166020820152606060408201525f60608201520190565b6102b287036106f557847f00000000000000000000000000000000000000000000000000000000000000001691823b156103925761043a9285888694604051968795869485937f9a2ac6d500000000000000000000000000000000000000000000000000000000855284019060809273ffffffffffffffffffffffffffffffffffffffff63ffffffff92168352166020820152606060408201525f60608201520190565b6276adf1870361079a57847f00000000000000000000000000000000000000000000000000000000000000001691823b156103925761043a9285888694604051968795869485937f9a2ac6d500000000000000000000000000000000000000000000000000000000855284019060809273ffffffffffffffffffffffffffffffffffffffff63ffffffff92168352166020820152606060408201525f60608201520190565b909150610120860361084457908691847f00000000000000000000000000000000000000000000000000000000000000001691823b156103925761043a9285888694604051968795869485937f9a2ac6d500000000000000000000000000000000000000000000000000000000855284019060809273ffffffffffffffffffffffffffffffffffffffff63ffffffff92168352166020820152606060408201525f60608201520190565b6064906020604051917f08c379a0000000000000000000000000000000000000000000000000000000008352820152601360248201527f496e76616c6964204f564d20636861696e4964000000000000000000000000006044820152fd5b6108ab90611656565b6108b657825f610287565b8280fd5b6040513d86823e3d90fd5b6108ce90611656565b61039257835f61023a565b6040513d87823e3d90fd5b5080fd5b823461014c57807ffffffffffffffffffffffffffffffffffffffffffffffffffffffffffffffffc36011261014c57602060405173ffffffffffffffffffffffffffffffffffffffff7f0000000000000000000000000000000000000000000000000000000000000000168152f35b823461014c57807ffffffffffffffffffffffffffffffffffffffffffffffffffffffffffffffffc36011261014c57602060405173ffffffffffffffffffffffffffffffffffffffff7f0000000000000000000000000000000000000000000000000000000000000000168152f35b823461014c57807ffffffffffffffffffffffffffffffffffffffffffffffffffffffffffffffffc36011261014c57602060405173ffffffffffffffffffffffffffffffffffffffff7f0000000000000000000000000000000000000000000000000000000000000000168152f35b823461014c57807ffffffffffffffffffffffffffffffffffffffffffffffffffffffffffffffffc36011261014c57602060405173ffffffffffffffffffffffffffffffffffffffff7f0000000000000000000000000000000000000000000000000000000000000000168152f35b823461014c57807ffffffffffffffffffffffffffffffffffffffffffffffffffffffffffffffffc36011261014c57602060405173ffffffffffffffffffffffffffffffffffffffff7f0000000000000000000000000000000000000000000000000000000000000000168152f35b915034610cf85760407ffffffffffffffffffffffffffffffffffffffffffffffffffffffffffffffffc360112610cf857610b4c611633565b6024359073ffffffffffffffffffffffffffffffffffffffff90817f000000000000000000000000000000000000000000000000000000000000000016803b15610cb657604080517f23b872dd0000000000000000000000000000000000000000000000000000000081523387820190815230602082015291820186905290879082908190606001038183865af1908115610ced578791610cd9575b5050803b15610cb6578580916024604051809481937f2e1a7d4d000000000000000000000000000000000000000000000000000000008352898b8401525af1908115610cce578691610cba575b5050817f00000000000000000000000000000000000000000000000000000000000000001690813b15610cb657859360249260405196879586947f4faa8a2600000000000000000000000000000000000000000000000000000000865216908401525af1801561038757610ca65750f35b610caf90611656565b61014c5780f35b8580fd5b610cc390611656565b61038357845f610c35565b6040513d88823e3d90fd5b610ce290611656565b610cb657855f610be8565b6040513d89823e3d90fd5b50fd5b823461014c57807ffffffffffffffffffffffffffffffffffffffffffffffffffffffffffffffffc36011261014c57602060405173ffffffffffffffffffffffffffffffffffffffff7f0000000000000000000000000000000000000000000000000000000000000000168152f35b823461014c57807ffffffffffffffffffffffffffffffffffffffffffffffffffffffffffffffffc36011261014c57602060405173ffffffffffffffffffffffffffffffffffffffff7f0000000000000000000000000000000000000000000000000000000000000000168152f35b823461014c57807ffffffffffffffffffffffffffffffffffffffffffffffffffffffffffffffffc36011261014c57602060405173ffffffffffffffffffffffffffffffffffffffff7f0000000000000000000000000000000000000000000000000000000000000000168152f35b823461014c57807ffffffffffffffffffffffffffffffffffffffffffffffffffffffffffffffffc36011261014c57602060405173ffffffffffffffffffffffffffffffffffffffff7f0000000000000000000000000000000000000000000000000000000000000000168152f35b823461014c57807ffffffffffffffffffffffffffffffffffffffffffffffffffffffffffffffffc36011261014c57602060405173ffffffffffffffffffffffffffffffffffffffff7f0000000000000000000000000000000000000000000000000000000000000000168152f35b905060407ffffffffffffffffffffffffffffffffffffffffffffffffffffffffffffffffc3601126108e457610f5a611633565b826024359173ffffffffffffffffffffffffffffffffffffffff90817f000000000000000000000000000000000000000000000000000000000000000016803b1561039257604080517f23b872dd0000000000000000000000000000000000000000000000000000000081523388820190815230602082015291820187905290859082908190606001038183865af19081156108d957859161112a575b5050803b15610392578380916024604051809481937f2e1a7d4d0000000000000000000000000000000000000000000000000000000083528a8c8401525af19081156108ba578491611116575b5050817f000000000000000000000000000000000000000000000000000000000000000016916110743486611697565b833b1561038357849260849160405195869485937f9f3ce55a00000000000000000000000000000000000000000000000000000000855216809a840152346024840152606060448401528560648401525af1801561038757611102575b50506040519081527f61ed67a945fe5f4d777919629ad666c7e81d66dc5fbaf4c143edd000c15d67dd60203392a380f35b61110b90611656565b6108b657825f6110d1565b61111f90611656565b6108b657825f611044565b61113390611656565b61039257835f610ff7565b823461155b5760a07ffffffffffffffffffffffffffffffffffffffffffffffffffffffffffffffffc36011261155b57611176611633565b602490604435906064359460843573ffffffffffffffffffffffffffffffffffffffff9384821680920361155b576040517fb473318e0000000000000000000000000000000000000000000000000000000081523a848201528187820152886044820152602081606481897f0000000000000000000000000000000000000000000000000000000000000000165afa8015611550575f9061155f575b61121f9150873590611697565b91857f000000000000000000000000000000000000000000000000000000000000000016803b1561155b57604080517f23b872dd00000000000000000000000000000000000000000000000000000000815233878201908152306020820152918201869052905f9082908190606001038183865af180156115505761153d575b50803b156115395788809189604051809481937f2e1a7d4d000000000000000000000000000000000000000000000000000000008352898b8401525af1801561152e5790899161151a575b505060405191602083019280841067ffffffffffffffff8511176114ef57899a8460409b98999a9b52878252897f0000000000000000000000000000000000000000000000000000000000000000163b156114eb5760409a989695949a99979951957feb6724190000000000000000000000000000000000000000000000000000000087528888169087015288358987015260e060448701528960e48701526101048601926064870152608486015261010060a48601525180915261012490818501918160051b860101999189905b82821061144d575050505082809281808b8b979560c4899701520391887f0000000000000000000000000000000000000000000000000000000000000000165af1801561038757611439575b50506040519235835216907fa3e601130860a6f97b42655ad74f631ddf0c8e5adaa98402fded9c09bc35a44060203392a380f35b61144290611656565b610392578385611405565b7ffffffffffffffffffffffffffffffffffffffffffffffffffffffffffffffedc878d969596030181528b855180518092528c5b8281106114d5575050808d0160209081018d9052601f919091017fffffffffffffffffffffffffffffffffffffffffffffffffffffffffffffffe016909c018c019b939484019360019290920191016113b9565b808f602082818095870101519201015201611481565b8780fd5b886041877f4e487b71000000000000000000000000000000000000000000000000000000005f52525ffd5b61152390611656565b6114eb57878a6112ea565b6040513d8b823e3d90fd5b8880fd5b611548919950611656565b5f978a61129f565b6040513d5f823e3d90fd5b5f80fd5b5060203d6020116115c0575b7fffffffffffffffffffffffffffffffffffffffffffffffffffffffffffffffe0601f820116820182811067ffffffffffffffff8211176114ef5760209183916040528101031261155b5761121f9051611212565b503d61156b565b3461155b575f7ffffffffffffffffffffffffffffffffffffffffffffffffffffffffffffffffc36011261155b5760209073ffffffffffffffffffffffffffffffffffffffff7f0000000000000000000000000000000000000000000000000000000000000000168152f35b6004359073ffffffffffffffffffffffffffffffffffffffff8216820361155b57565b67ffffffffffffffff811161166a57604052565b7f4e487b71000000000000000000000000000000000000000000000000000000005f52604160045260245ffd5b919082018092116116a457565b7f4e487b71000000000000000000000000000000000000000000000000000000005f52601160045260245ffdfea26469706673582212205888bf681cf0d9036082fce3d2d0a7cbdfb2d39c83fdb5d03d2fff0b90c6af1064736f6c63430008170033"
}