{
  "address": "0xd8938466fE02dA664b806583edE9c77dCD968692",
  "abi": [
    {
      "inputs": [
        {
          "internalType": "address",
          "name": "to",
          "type": "address"
        }
      ],
      "name": "transfer",
      "outputs": [],
      "stateMutability": "payable",
      "type": "function"
    }
  ],
  "transactionHash": "0x9827303a1f956d0ada42c30775c08dfcf35fb4b3e76934cb348a1320e448982f",
  "args": [],
  "numDeployments": 1,
  "solcInputHash": "1944a92f3b3fe0511b7227d2b1c11e20",
  "bytecode": "0x608080604052346100165761011b908161001b8239f35b5f80fdfe608060405260043610156010575f80fd5b5f3560e01c631a695230146022575f80fd5b602036600319011260e1576004356001600160a01b038116810360e1575f8080809334905af13d1560dd576001600160401b033d81811160c95760405191601f8201601f19908116603f011683019081118382101760c95760405281525f60203d92013e5b15608d57005b60405162461bcd60e51b815260206004820152601460248201527322aa24103a3930b739b332b9103330b4b632b21760611b6044820152606490fd5b634e487b7160e01b5f52604160045260245ffd5b6087565b5f80fdfea2646970667358221220ab24149b6196dd220f1ed65a3e61b98d7c48079432354104b48289162299dfde64736f6c63430008170033",
  "devdoc": {
    "kind": "dev",
    "methods": {
      "transfer(address)": {
        "params": {
          "to": "The address to receive `msg.value`."
        }
      }
    },
    "version": 1
  },
  "userdoc": {
    "kind": "user",
    "methods": {
      "transfer(address)": {
        "notice": "Transfers `msg.value` to the input `to` address."
      }
    },
    "notice": "Contract deployed on Ethereum which is meant to be a whitelisted bridge on the AtomicWethDepositor for all networks which rebalance WETH via a centralized exchange that uses (non-static) EOA deposit addresses.",
    "version": 1
  },
  "storageLayout": {
    "storage": [],
    "types": null
  }
}