{
  "address": "0xa679201903847f3723Dc88CA7530c8B665bC51a5",
  "abi": [
    {
      "anonymous": false,
      "inputs": [
        {
          "indexed": true,
          "internalType": "address",
          "name": "from",
          "type": "address"
        },
        {
          "indexed": true,
          "internalType": "address",
          "name": "to",
          "type": "address"
        },
        {
          "indexed": false,
          "internalType": "uint256",
          "name": "amount",
          "type": "uint256"
        }
      ],
      "name": "LineaEthDepositInitiated",
      "type": "event"
    },
    {
      "anonymous": false,
      "inputs": [
        {
          "indexed": true,
          "internalType": "uint256",
          "name": "chainId",
          "type": "uint256"
        },
        {
          "indexed": true,
          "internalType": "address",
          "name": "from",
          "type": "address"
        },
        {
          "indexed": true,
          "internalType": "address",
          "name": "to",
          "type": "address"
        },
        {
          "indexed": false,
          "internalType": "uint256",
          "name": "amount",
          "type": "uint256"
        }
      ],
      "name": "OvmEthDepositInitiated",
      "type": "event"
    },
    {
      "anonymous": false,
      "inputs": [
        {
          "indexed": true,
          "internalType": "address",
          "name": "from",
          "type": "address"
        },
        {
          "indexed": true,
          "internalType": "address",
          "name": "to",
          "type": "address"
        },
        {
          "indexed": false,
          "internalType": "uint256",
          "name": "amount",
          "type": "uint256"
        }
      ],
      "name": "ZkSyncEthDepositInitiated",
      "type": "event"
    },
    {
      "stateMutability": "payable",
      "type": "fallback"
    },
    {
      "inputs": [],
      "name": "baseL1Bridge",
      "outputs": [
        {
          "internalType": "contract OvmL1Bridge",
          "name": "",
          "type": "address"
        }
      ],
      "stateMutability": "view",
      "type": "function"
    },
    {
      "inputs": [],
      "name": "blastL1Bridge",
      "outputs": [
        {
          "internalType": "contract OvmL1Bridge",
          "name": "",
          "type": "address"
        }
      ],
      "stateMutability": "view",
      "type": "function"
    },
    {
      "inputs": [],
      "name": "bobaL1Bridge",
      "outputs": [
        {
          "internalType": "contract OvmL1Bridge",
          "name": "",
          "type": "address"
        }
      ],
      "stateMutability": "view",
      "type": "function"
    },
    {
      "inputs": [
        {
          "internalType": "address",
          "name": "to",
          "type": "address"
        },
        {
          "internalType": "uint256",
          "name": "amount",
          "type": "uint256"
        }
      ],
      "name": "bridgeWethToLinea",
      "outputs": [],
      "stateMutability": "payable",
      "type": "function"
    },
    {
      "inputs": [
        {
          "internalType": "address",
          "name": "to",
          "type": "address"
        },
        {
          "internalType": "uint256",
          "name": "amount",
          "type": "uint256"
        },
        {
          "internalType": "uint32",
          "name": "l2Gas",
          "type": "uint32"
        },
        {
          "internalType": "uint256",
          "name": "chainId",
          "type": "uint256"
        }
      ],
      "name": "bridgeWethToOvm",
      "outputs": [],
      "stateMutability": "nonpayable",
      "type": "function"
    },
    {
      "inputs": [
        {
          "internalType": "address",
          "name": "to",
          "type": "address"
        },
        {
          "internalType": "uint256",
          "name": "amount",
          "type": "uint256"
        }
      ],
      "name": "bridgeWethToPolygon",
      "outputs": [],
      "stateMutability": "nonpayable",
      "type": "function"
    },
    {
      "inputs": [
        {
          "internalType": "address",
          "name": "to",
          "type": "address"
        },
        {
          "internalType": "uint256",
          "name": "amount",
          "type": "uint256"
        },
        {
          "internalType": "uint256",
          "name": "l2GasLimit",
          "type": "uint256"
        },
        {
          "internalType": "uint256",
          "name": "l2GasPerPubdataByteLimit",
          "type": "uint256"
        },
        {
          "internalType": "address",
          "name": "refundRecipient",
          "type": "address"
        }
      ],
      "name": "bridgeWethToZkSync",
      "outputs": [],
      "stateMutability": "nonpayable",
      "type": "function"
    },
    {
      "inputs": [],
      "name": "lineaL1MessageService",
      "outputs": [
        {
          "internalType": "contract LineaL1MessageService",
          "name": "",
          "type": "address"
        }
      ],
      "stateMutability": "view",
      "type": "function"
    },
    {
      "inputs": [],
      "name": "liskL1Bridge",
      "outputs": [
        {
          "internalType": "contract OvmL1Bridge",
          "name": "",
          "type": "address"
        }
      ],
      "stateMutability": "view",
      "type": "function"
    },
    {
      "inputs": [],
      "name": "modeL1Bridge",
      "outputs": [
        {
          "internalType": "contract OvmL1Bridge",
          "name": "",
          "type": "address"
        }
      ],
      "stateMutability": "view",
      "type": "function"
    },
    {
      "inputs": [],
      "name": "optimismL1Bridge",
      "outputs": [
        {
          "internalType": "contract OvmL1Bridge",
          "name": "",
          "type": "address"
        }
      ],
      "stateMutability": "view",
      "type": "function"
    },
    {
      "inputs": [],
      "name": "polygonL1Bridge",
      "outputs": [
        {
          "internalType": "contract PolygonL1Bridge",
          "name": "",
          "type": "address"
        }
      ],
      "stateMutability": "view",
      "type": "function"
    },
    {
      "inputs": [],
      "name": "redstoneL1Bridge",
      "outputs": [
        {
          "internalType": "contract OvmL1Bridge",
          "name": "",
          "type": "address"
        }
      ],
      "stateMutability": "view",
      "type": "function"
    },
    {
      "inputs": [],
      "name": "weth",
      "outputs": [
        {
          "internalType": "contract Weth",
          "name": "",
          "type": "address"
        }
      ],
      "stateMutability": "view",
      "type": "function"
    },
    {
      "inputs": [],
      "name": "worldChainL1Bridge",
      "outputs": [
        {
          "internalType": "contract OvmL1Bridge",
          "name": "",
          "type": "address"
        }
      ],
      "stateMutability": "view",
      "type": "function"
    },
    {
      "inputs": [],
      "name": "zkSyncL1Bridge",
      "outputs": [
        {
          "internalType": "contract ZkSyncL1Bridge",
          "name": "",
          "type": "address"
        }
      ],
      "stateMutability": "view",
      "type": "function"
    },
    {
      "inputs": [],
      "name": "zoraL1Bridge",
      "outputs": [
        {
          "internalType": "contract OvmL1Bridge",
          "name": "",
          "type": "address"
        }
      ],
      "stateMutability": "view",
      "type": "function"
    },
    {
      "stateMutability": "payable",
      "type": "receive"
    }
  ],
  "transactionHash": "0xc357db947a4f937ca325e6246f6a6bcd972b4ad32ad2bcb66741f8f24b1b8ff0",
  "args": [],
  "numDeployments": 9,
  "solcInputHash": "0b9a38081e5f67aae8aeed6c044fb8c5",
  "bytecode": "0x61022080604052346102475773c02aaa39b223fe8d0a0e5c4f27ead9083c756cc26080527399c9fc46f92e8a1c0dec1b1747d010903e884be160a05273735adbbe72226bd52e818e7181953f42e3b0ff2160c05273dc1664458d2f0b6090bea60a8793a4e66c2f1c0060e05261010090733154cf16ccdb4c6d922629664174b904d80f2c358252610120732658723bf70c7667de6b25f99fcce13a16d25d08815261014073c473ca7e02af24c129c2eef51f2adf0411c1df69815261016073697402166fbf2f22e970df8a6486ef171dbfc524815261018073470458c91978d2d929704489ad730dc3e300111381526101a090733e2ea9b92b7e48a52296fd261dc26fd99528463182526101c09273a0c68c638235ee32657e8f720a23cec1bfc77c7784526101e0947332400084c286cf3e17e7b677ea9583e60a00032486526102009673d19d4b5d358258f05d7b411e21a1460d11b0876f8852611825998a61024c8b396080518a81816101c601528181610c1801528181610fb1015281816110270152611341015260a0518a818161029f01526109e2015260c0518a818161047b0152610df5015260e0518a818161085b015261172d0152518981816103ad0152610b2f01525188818161013301526105c301525187818161070c0152610b9e0152518681816106680152610e6401525185818161051f01526112380152518481816107b10152610f42015251838181610a510152610ce9015251828181610ed3015281816113010152818161143701526114f6015251818181610ac001526110f80152f35b5f80fdfe6080806040526004908136101561001d575b5050361561001b57005b005b5f915f3560e01c918263019f8e81146116e557508163128d5f681461125c5781632a8ecb13146111ed57816336918a9714610fd55781633fc8cef314610f665781634fbf95d714610ef75781635970eafa14610e8857816362c8eb5c14610e19578163645b6f1114610daa57828263b3d5ccc314610bc257508163b6865d6e14610b53578163b745c3f314610ae4578163c04b953414610a75578163c80dcc3814610a06578163d3cdc8f914610997578163e88650c41461015a575063f43873c4146100e95780610011565b3461015757807ffffffffffffffffffffffffffffffffffffffffffffffffffffffffffffffffc36011261015757602060405173ffffffffffffffffffffffffffffffffffffffff7f0000000000000000000000000000000000000000000000000000000000000000168152f35b80fd5b9050346109935760807ffffffffffffffffffffffffffffffffffffffffffffffffffffffffffffffffc36011261099357610193611751565b604435916024359163ffffffff8416840361038e57846064359473ffffffffffffffffffffffffffffffffffffffff93847f000000000000000000000000000000000000000000000000000000000000000016803b1561039d57604080517f23b872dd0000000000000000000000000000000000000000000000000000000081523384820190815230602082015291820189905290859082908190606001038183865af1908115610988578591610974575b5050803b1561039d578380916024604051809481937f2e1a7d4d0000000000000000000000000000000000000000000000000000000083528c888401525af1908115610969578491610951575b5050600a87036103a157847f00000000000000000000000000000000000000000000000000000000000000001691823b1561039d576103379285888694604051968795869485937f9a2ac6d500000000000000000000000000000000000000000000000000000000855284019060809273ffffffffffffffffffffffffffffffffffffffff63ffffffff92168352166020820152606060408201525f60608201520190565b03925af180156103925761037a575b50505b60405192835216917fcde53d24289bf7d0b2baeea6140c533d8388fb574b055364d718f637bedea7a460203393a480f35b61038390611774565b61038e57845f610346565b8480fd5b6040513d84823e3d90fd5b8380fd5b612105870361046f57847f00000000000000000000000000000000000000000000000000000000000000001691823b1561039d576104459285888694604051968795869485937f9a2ac6d500000000000000000000000000000000000000000000000000000000855284019060809273ffffffffffffffffffffffffffffffffffffffff63ffffffff92168352166020820152606060408201525f60608201520190565b03925af180156103925761045b575b5050610349565b61046490611774565b61038e57845f610454565b61868b870361051357847f00000000000000000000000000000000000000000000000000000000000000001691823b1561039d576104459285888694604051968795869485937f9a2ac6d500000000000000000000000000000000000000000000000000000000855284019060809273ffffffffffffffffffffffffffffffffffffffff63ffffffff92168352166020820152606060408201525f60608201520190565b6101e087036105b757847f00000000000000000000000000000000000000000000000000000000000000001691823b1561039d576104459285888694604051968795869485937f9a2ac6d500000000000000000000000000000000000000000000000000000000855284019060809273ffffffffffffffffffffffffffffffffffffffff63ffffffff92168352166020820152606060408201525f60608201520190565b61046f870361065b57847f00000000000000000000000000000000000000000000000000000000000000001691823b1561039d576104459285888694604051968795869485937f9a2ac6d500000000000000000000000000000000000000000000000000000000855284019060809273ffffffffffffffffffffffffffffffffffffffff63ffffffff92168352166020820152606060408201525f60608201520190565b62013e31870361070057847f00000000000000000000000000000000000000000000000000000000000000001691823b1561039d576104459285888694604051968795869485937f9a2ac6d500000000000000000000000000000000000000000000000000000000855284019060809273ffffffffffffffffffffffffffffffffffffffff63ffffffff92168352166020820152606060408201525f60608201520190565b6102b287036107a457847f00000000000000000000000000000000000000000000000000000000000000001691823b1561039d576104459285888694604051968795869485937f9a2ac6d500000000000000000000000000000000000000000000000000000000855284019060809273ffffffffffffffffffffffffffffffffffffffff63ffffffff92168352166020820152606060408201525f60608201520190565b6276adf1870361084957847f00000000000000000000000000000000000000000000000000000000000000001691823b1561039d576104459285888694604051968795869485937f9a2ac6d500000000000000000000000000000000000000000000000000000000855284019060809273ffffffffffffffffffffffffffffffffffffffff63ffffffff92168352166020820152606060408201525f60608201520190565b90915061012086036108f357908691847f00000000000000000000000000000000000000000000000000000000000000001691823b1561039d576104459285888694604051968795869485937f9a2ac6d500000000000000000000000000000000000000000000000000000000855284019060809273ffffffffffffffffffffffffffffffffffffffff63ffffffff92168352166020820152606060408201525f60608201520190565b6064906020604051917f08c379a0000000000000000000000000000000000000000000000000000000008352820152601360248201527f496e76616c6964204f564d20636861696e4964000000000000000000000000006044820152fd5b61095a90611774565b61096557825f610292565b8280fd5b6040513d86823e3d90fd5b61097d90611774565b61039d57835f610245565b6040513d87823e3d90fd5b5080fd5b823461015757807ffffffffffffffffffffffffffffffffffffffffffffffffffffffffffffffffc36011261015757602060405173ffffffffffffffffffffffffffffffffffffffff7f0000000000000000000000000000000000000000000000000000000000000000168152f35b823461015757807ffffffffffffffffffffffffffffffffffffffffffffffffffffffffffffffffc36011261015757602060405173ffffffffffffffffffffffffffffffffffffffff7f0000000000000000000000000000000000000000000000000000000000000000168152f35b823461015757807ffffffffffffffffffffffffffffffffffffffffffffffffffffffffffffffffc36011261015757602060405173ffffffffffffffffffffffffffffffffffffffff7f0000000000000000000000000000000000000000000000000000000000000000168152f35b823461015757807ffffffffffffffffffffffffffffffffffffffffffffffffffffffffffffffffc36011261015757602060405173ffffffffffffffffffffffffffffffffffffffff7f0000000000000000000000000000000000000000000000000000000000000000168152f35b823461015757807ffffffffffffffffffffffffffffffffffffffffffffffffffffffffffffffffc36011261015757602060405173ffffffffffffffffffffffffffffffffffffffff7f0000000000000000000000000000000000000000000000000000000000000000168152f35b915034610da75760407ffffffffffffffffffffffffffffffffffffffffffffffffffffffffffffffffc360112610da757610bfb611751565b6024359073ffffffffffffffffffffffffffffffffffffffff90817f000000000000000000000000000000000000000000000000000000000000000016803b15610d6557604080517f23b872dd0000000000000000000000000000000000000000000000000000000081523387820190815230602082015291820186905290879082908190606001038183865af1908115610d9c578791610d88575b5050803b15610d65578580916024604051809481937f2e1a7d4d000000000000000000000000000000000000000000000000000000008352898b8401525af1908115610d7d578691610d69575b5050817f00000000000000000000000000000000000000000000000000000000000000001690813b15610d6557859360249260405196879586947f4faa8a2600000000000000000000000000000000000000000000000000000000865216908401525af1801561039257610d555750f35b610d5e90611774565b6101575780f35b8580fd5b610d7290611774565b61038e57845f610ce4565b6040513d88823e3d90fd5b610d9190611774565b610d6557855f610c97565b6040513d89823e3d90fd5b50fd5b823461015757807ffffffffffffffffffffffffffffffffffffffffffffffffffffffffffffffffc36011261015757602060405173ffffffffffffffffffffffffffffffffffffffff7f0000000000000000000000000000000000000000000000000000000000000000168152f35b823461015757807ffffffffffffffffffffffffffffffffffffffffffffffffffffffffffffffffc36011261015757602060405173ffffffffffffffffffffffffffffffffffffffff7f0000000000000000000000000000000000000000000000000000000000000000168152f35b823461015757807ffffffffffffffffffffffffffffffffffffffffffffffffffffffffffffffffc36011261015757602060405173ffffffffffffffffffffffffffffffffffffffff7f0000000000000000000000000000000000000000000000000000000000000000168152f35b823461015757807ffffffffffffffffffffffffffffffffffffffffffffffffffffffffffffffffc36011261015757602060405173ffffffffffffffffffffffffffffffffffffffff7f0000000000000000000000000000000000000000000000000000000000000000168152f35b823461015757807ffffffffffffffffffffffffffffffffffffffffffffffffffffffffffffffffc36011261015757602060405173ffffffffffffffffffffffffffffffffffffffff7f0000000000000000000000000000000000000000000000000000000000000000168152f35b905060407ffffffffffffffffffffffffffffffffffffffffffffffffffffffffffffffffc36011261099357611009611751565b826024359173ffffffffffffffffffffffffffffffffffffffff90817f000000000000000000000000000000000000000000000000000000000000000016803b1561039d57604080517f23b872dd0000000000000000000000000000000000000000000000000000000081523388820190815230602082015291820187905290859082908190606001038183865af19081156109885785916111d9575b5050803b1561039d578380916024604051809481937f2e1a7d4d0000000000000000000000000000000000000000000000000000000083528a8c8401525af19081156109695784916111c5575b5050817f0000000000000000000000000000000000000000000000000000000000000000169161112334866117b5565b833b1561038e57849260849160405195869485937f9f3ce55a00000000000000000000000000000000000000000000000000000000855216809a840152346024840152606060448401528560648401525af18015610392576111b1575b50506040519081527f61ed67a945fe5f4d777919629ad666c7e81d66dc5fbaf4c143edd000c15d67dd60203392a380f35b6111ba90611774565b61096557825f611180565b6111ce90611774565b61096557825f6110f3565b6111e290611774565b61039d57835f6110a6565b823461015757807ffffffffffffffffffffffffffffffffffffffffffffffffffffffffffffffffc36011261015757602060405173ffffffffffffffffffffffffffffffffffffffff7f0000000000000000000000000000000000000000000000000000000000000000168152f35b82346116795760a07ffffffffffffffffffffffffffffffffffffffffffffffffffffffffffffffffc36011261167957611294611751565b602490604435906064359460843573ffffffffffffffffffffffffffffffffffffffff93848216809203611679576040517fb473318e0000000000000000000000000000000000000000000000000000000081523a848201528187820152886044820152602081606481897f0000000000000000000000000000000000000000000000000000000000000000165afa801561166e575f9061167d575b61133d91508735906117b5565b91857f000000000000000000000000000000000000000000000000000000000000000016803b1561167957604080517f23b872dd00000000000000000000000000000000000000000000000000000000815233878201908152306020820152918201869052905f9082908190606001038183865af1801561166e5761165b575b50803b156116575788809189604051809481937f2e1a7d4d000000000000000000000000000000000000000000000000000000008352898b8401525af1801561164c57908991611638575b505060405191602083019280841067ffffffffffffffff85111761160d57899a8460409b98999a9b52878252897f0000000000000000000000000000000000000000000000000000000000000000163b156116095760409a989695949a99979951957feb6724190000000000000000000000000000000000000000000000000000000087528888169087015288358987015260e060448701528960e48701526101048601926064870152608486015261010060a48601525180915261012490818501918160051b860101999189905b82821061156b575050505082809281808b8b979560c4899701520391887f0000000000000000000000000000000000000000000000000000000000000000165af1801561039257611557575b50506040519235835216907fa3e601130860a6f97b42655ad74f631ddf0c8e5adaa98402fded9c09bc35a44060203392a380f35b61156090611774565b61039d578385611523565b7ffffffffffffffffffffffffffffffffffffffffffffffffffffffffffffffedc878d969596030181528b855180518092528c5b8281106115f3575050808d0160209081018d9052601f919091017fffffffffffffffffffffffffffffffffffffffffffffffffffffffffffffffe016909c018c019b939484019360019290920191016114d7565b808f60208281809587010151920101520161159f565b8780fd5b886041877f4e487b71000000000000000000000000000000000000000000000000000000005f52525ffd5b61164190611774565b61160957878a611408565b6040513d8b823e3d90fd5b8880fd5b611666919950611774565b5f978a6113bd565b6040513d5f823e3d90fd5b5f80fd5b5060203d6020116116de575b7fffffffffffffffffffffffffffffffffffffffffffffffffffffffffffffffe0601f820116820182811067ffffffffffffffff82111761160d576020918391604052810103126116795761133d9051611330565b503d611689565b34611679575f7ffffffffffffffffffffffffffffffffffffffffffffffffffffffffffffffffc3601126116795760209073ffffffffffffffffffffffffffffffffffffffff7f0000000000000000000000000000000000000000000000000000000000000000168152f35b6004359073ffffffffffffffffffffffffffffffffffffffff8216820361167957565b67ffffffffffffffff811161178857604052565b7f4e487b71000000000000000000000000000000000000000000000000000000005f52604160045260245ffd5b919082018092116117c257565b7f4e487b71000000000000000000000000000000000000000000000000000000005f52601160045260245ffdfea26469706673582212205607a85a9e0ca52451b4663fa28c093065e7dee23fa38dcc76041544e413a52e64736f6c63430008170033"
}