{
  "address": "0x64668fbD18b967b46DD22dc8675134D91efeDd8d",
  "abi": [
    {
      "inputs": [],
      "name": "InvalidBridgeFunction",
      "type": "error"
    },
    {
      "anonymous": false,
      "inputs": [
        {
          "indexed": true,
          "internalType": "address",
          "name": "from",
          "type": "address"
        },
        {
          "indexed": true,
          "internalType": "uint256",
          "name": "chainId",
          "type": "uint256"
        },
        {
          "indexed": false,
          "internalType": "uint256",
          "name": "amount",
          "type": "uint256"
        }
      ],
      "name": "AtomicWethDepositInitiated",
      "type": "event"
    },
    {
      "anonymous": false,
      "inputs": [
        {
          "indexed": true,
          "internalType": "address",
          "name": "previousOwner",
          "type": "address"
        },
        {
          "indexed": true,
          "internalType": "address",
          "name": "newOwner",
          "type": "address"
        }
      ],
      "name": "OwnershipTransferred",
      "type": "event"
    },
    {
      "stateMutability": "payable",
      "type": "fallback"
    },
    {
      "inputs": [],
      "name": "WETH",
      "outputs": [
        {
          "internalType": "contract Weth",
          "name": "",
          "type": "address"
        }
      ],
      "stateMutability": "view",
      "type": "function"
    },
    {
      "inputs": [
        {
          "internalType": "uint256",
          "name": "chainId",
          "type": "uint256"
        },
        {
          "internalType": "uint256",
          "name": "netValue",
          "type": "uint256"
        },
        {
          "internalType": "uint256",
          "name": "bridgeValue",
          "type": "uint256"
        },
        {
          "internalType": "uint256",
          "name": "feeAmount",
          "type": "uint256"
        },
        {
          "internalType": "bytes",
          "name": "bridgeCallData",
          "type": "bytes"
        }
      ],
      "name": "bridgeWeth",
      "outputs": [],
      "stateMutability": "nonpayable",
      "type": "function"
    },
    {
      "inputs": [
        {
          "internalType": "bytes[]",
          "name": "data",
          "type": "bytes[]"
        }
      ],
      "name": "multicall",
      "outputs": [
        {
          "internalType": "bytes[]",
          "name": "results",
          "type": "bytes[]"
        }
      ],
      "stateMutability": "nonpayable",
      "type": "function"
    },
    {
      "inputs": [],
      "name": "owner",
      "outputs": [
        {
          "internalType": "address",
          "name": "",
          "type": "address"
        }
      ],
      "stateMutability": "view",
      "type": "function"
    },
    {
      "inputs": [],
      "name": "renounceOwnership",
      "outputs": [],
      "stateMutability": "nonpayable",
      "type": "function"
    },
    {
      "inputs": [
        {
          "internalType": "address",
          "name": "newOwner",
          "type": "address"
        }
      ],
      "name": "transferOwnership",
      "outputs": [],
      "stateMutability": "nonpayable",
      "type": "function"
    },
    {
      "inputs": [
        {
          "internalType": "uint256",
          "name": "chainId",
          "type": "uint256"
        },
        {
          "components": [
            {
              "internalType": "address",
              "name": "bridge",
              "type": "address"
            },
            {
              "internalType": "address",
              "name": "gateway",
              "type": "address"
            },
            {
              "internalType": "address",
              "name": "feeToken",
              "type": "address"
            },
            {
              "internalType": "bytes4",
              "name": "funcSelector",
              "type": "bytes4"
            }
          ],
          "internalType": "struct AtomicWethDepositor.Bridge",
          "name": "bridge",
          "type": "tuple"
        }
      ],
      "name": "whitelistBridge",
      "outputs": [],
      "stateMutability": "nonpayable",
      "type": "function"
    },
    {
      "inputs": [
        {
          "internalType": "uint256",
          "name": "",
          "type": "uint256"
        }
      ],
      "name": "whitelistedBridgeFunctions",
      "outputs": [
        {
          "internalType": "address",
          "name": "bridge",
          "type": "address"
        },
        {
          "internalType": "address",
          "name": "gateway",
          "type": "address"
        },
        {
          "internalType": "address",
          "name": "feeToken",
          "type": "address"
        },
        {
          "internalType": "bytes4",
          "name": "funcSelector",
          "type": "bytes4"
        }
      ],
      "stateMutability": "view",
      "type": "function"
    },
    {
      "stateMutability": "payable",
      "type": "receive"
    }
  ],
  "transactionHash": "0xacc5acc4274ae5642a7882487399713e8c0069e7f98c1ed0e018563fc21759a1",
  "args": [],
  "numDeployments": 12,
  "solcInputHash": "a4875bd777d9afdf683a4e5b67e80d39",
  "bytecode": "0x60a08060405234610089575f543360018060a01b0382167f8be0079c531659141344cd1fd0a4f28419497f9722a3daafe3b4186f6b6457e05f80a36001600160a81b0319163360ff60a01b191617600160a01b175f5573c02aaa39b223fe8d0a0e5c4f27ead9083c756cc2608052611425908161008e82396080518181816106010152610ef50152f35b5f80fdfe60806040526004361015610018575b361561001657005b005b5f3560e01c806331e57ede146100975780633a03c4a914610092578063715018a61461008d57806388319fe8146100885780638da5cb5b14610083578063ac9650d81461007e578063ad5c4648146100795763f2fde38b0361000e57610643565b6105b7565b61052f565b6103fa565b610261565b6101c7565b610118565b346101145760a07ffffffffffffffffffffffffffffffffffffffffffffffffffffffffffffffffc3601126101145760843567ffffffffffffffff80821161011457366023830112156101145781600401359081116101145736602482840101116101145760246100169201606435604435602435600435610779565b5f80fd5b346101145760207ffffffffffffffffffffffffffffffffffffffffffffffffffffffffffffffffc360112610114576004355f526001602052608060405f207fffffffff0000000000000000000000000000000000000000000000000000000073ffffffffffffffffffffffffffffffffffffffff9182815416926002816001840154169201549160405194855260208501528116604084015260401b166060820152f35b5f91031261011457565b34610114575f7ffffffffffffffffffffffffffffffffffffffffffffffffffffffffffffffffc360112610114576101fd611176565b5f73ffffffffffffffffffffffffffffffffffffffff81547fffffffffffffffffffffffff000000000000000000000000000000000000000081168355167f8be0079c531659141344cd1fd0a4f28419497f9722a3daafe3b4186f6b6457e08280a3005b346101145760a07ffffffffffffffffffffffffffffffffffffffffffffffffffffffffffffffffc3601126101145760807fffffffffffffffffffffffffffffffffffffffffffffffffffffffffffffffdc360112610114576102c2611176565b6004355f526001602052600260405f206103226024356102e181610625565b829073ffffffffffffffffffffffffffffffffffffffff167fffffffffffffffffffffffff0000000000000000000000000000000000000000825416179055565b61037560443561033181610625565b600183019073ffffffffffffffffffffffffffffffffffffffff167fffffffffffffffffffffffff0000000000000000000000000000000000000000825416179055565b016103856064356102e181610625565b6084357fffffffff00000000000000000000000000000000000000000000000000000000811681036101145781547fffffffffffffffff00000000ffffffffffffffffffffffffffffffffffffffff1660409190911c77ffffffff000000000000000000000000000000000000000016179055005b34610114575f7ffffffffffffffffffffffffffffffffffffffffffffffffffffffffffffffffc36011261011457602073ffffffffffffffffffffffffffffffffffffffff5f5416604051908152f35b5f5b83811061045b5750505f910152565b818101518382015260200161044c565b907fffffffffffffffffffffffffffffffffffffffffffffffffffffffffffffffe0601f6020936104a78151809281875287808801910161044a565b0116010190565b6020808201906020835283518092526040830192602060408460051b8301019501935f915b8483106104e35750505050505090565b909192939495848061051f837fffffffffffffffffffffffffffffffffffffffffffffffffffffffffffffffc086600196030187528a5161046b565b98019301930191949392906104d3565b346101145760207ffffffffffffffffffffffffffffffffffffffffffffffffffffffffffffffffc3601126101145767ffffffffffffffff6004358181116101145736602382011215610114578060040135918211610114573660248360051b83010111610114576105b39160246105a79201610e10565b604051918291826104ae565b0390f35b34610114575f7ffffffffffffffffffffffffffffffffffffffffffffffffffffffffffffffffc36011261011457602060405173ffffffffffffffffffffffffffffffffffffffff7f0000000000000000000000000000000000000000000000000000000000000000168152f35b73ffffffffffffffffffffffffffffffffffffffff81160361011457565b346101145760207ffffffffffffffffffffffffffffffffffffffffffffffffffffffffffffffffc3601126101145760043561067e81610625565b610686611176565b73ffffffffffffffffffffffffffffffffffffffff8091169081156106f5575f54827fffffffffffffffffffffffff00000000000000000000000000000000000000008216175f55167f8be0079c531659141344cd1fd0a4f28419497f9722a3daafe3b4186f6b6457e05f80a3005b60846040517f08c379a000000000000000000000000000000000000000000000000000000000815260206004820152602660248201527f4f776e61626c653a206e6577206f776e657220697320746865207a65726f206160448201527f64647265737300000000000000000000000000000000000000000000000000006064820152fd5b949092919360ff5f5460a01c16156109d8576107b67fffffffffffffffffffffff00ffffffffffffffffffffffffffffffffffffffff5f54165f55565b6107bf84610ede565b6107d96107d4875f52600160205260405f2090565b610af5565b9161080760608401517fffffffff000000000000000000000000000000000000000000000000000000001690565b7fffffffff0000000000000000000000000000000000000000000000000000000061085a6108358486610b75565b7fffffffff000000000000000000000000000000000000000000000000000000001690565b9116036109ae57610904946108e2845f966108a961089060408a99015173ffffffffffffffffffffffffffffffffffffffff1690565b73ffffffffffffffffffffffffffffffffffffffff1690565b9073ffffffffffffffffffffffffffffffffffffffff8216610976575b50505173ffffffffffffffffffffffffffffffffffffffff1690565b926108f260405180948193610bb9565b03925af16108fe610c00565b90610c43565b60405190815233907f07eaada8c9bcef700c8d25524866ae64bf4c9586cd632e43aa2ab78fc8dfef9e90602090a3610974740100000000000000000000000000000000000000007fffffffffffffffffffffff00ffffffffffffffffffffffffffffffffffffffff5f5416175f55565b565b6109a79161098682303384610fe4565b602084015173ffffffffffffffffffffffffffffffffffffffff1690611053565b5f806108c6565b60046040517f172b8892000000000000000000000000000000000000000000000000000000008152fd5b60646040517f08c379a000000000000000000000000000000000000000000000000000000000815260206004820152601f60248201527f5265656e7472616e637947756172643a207265656e7472616e742063616c6c006044820152fd5b7f4e487b71000000000000000000000000000000000000000000000000000000005f52604160045260245ffd5b67ffffffffffffffff8111610a7757604052565b610a36565b6080810190811067ffffffffffffffff821117610a7757604052565b6040810190811067ffffffffffffffff821117610a7757604052565b90601f7fffffffffffffffffffffffffffffffffffffffffffffffffffffffffffffffe0910116810190811067ffffffffffffffff821117610a7757604052565b906040516080810181811067ffffffffffffffff821117610a775760405260607fffffffff000000000000000000000000000000000000000000000000000000008294600273ffffffffffffffffffffffffffffffffffffffff918281541686528260018201541660208701520154908116604085015260401b16910152565b7fffffffff000000000000000000000000000000000000000000000000000000009035818116939260048110610baa57505050565b60040360031b82901b16169150565b908092918237015f815290565b67ffffffffffffffff8111610a7757601f017fffffffffffffffffffffffffffffffffffffffffffffffffffffffffffffffe01660200190565b3d15610c2a573d90610c1182610bc6565b91610c1f6040519384610ab4565b82523d5f602084013e565b606090565b906020610c4092818152019061046b565b90565b15610c4b5750565b610c89906040519182917f08c379a000000000000000000000000000000000000000000000000000000000835260206004840152602483019061046b565b0390fd5b67ffffffffffffffff8111610a775760051b60200190565b90610caf82610c8d565b610cbc6040519182610ab4565b8281527fffffffffffffffffffffffffffffffffffffffffffffffffffffffffffffffe0610cea8294610c8d565b01905f5b828110610cfa57505050565b806060602080938501015201610cee565b7f4e487b71000000000000000000000000000000000000000000000000000000005f52603260045260245ffd5b9190811015610d985760051b810135907fffffffffffffffffffffffffffffffffffffffffffffffffffffffffffffffe18136030182121561011457019081359167ffffffffffffffff8311610114576020018236038113610114579190565b610d0b565b6020818303126101145780519067ffffffffffffffff8211610114570181601f82011215610114578051610dd081610bc6565b92610dde6040519485610ab4565b8184526020828401011161011457610c40916020808501910161044a565b8051821015610d985760209160051b010190565b919091610e1c83610ca5565b925f5b818110610e2b57505050565b5f80610e38838587610d38565b60409391610e4a855180938193610bb9565b0390305af490610e58610c00565b9115610e7f575090600191610e6d8288610dfc565b52610e788187610dfc565b5001610e1f565b90604481511061011457610c89610ea460049283810151602480918301019101610d9d565b92519283927f08c379a00000000000000000000000000000000000000000000000000000000084528301610c2f565b6040513d5f823e3d90fd5b73ffffffffffffffffffffffffffffffffffffffff7f000000000000000000000000000000000000000000000000000000000000000016803b15610114576040517f23b872dd000000000000000000000000000000000000000000000000000000008152336004820152306024820152604481018390525f8160648183865af18015610fcc57610fd1575b50803b15610114576040517f2e1a7d4d00000000000000000000000000000000000000000000000000000000815260048101929092525f908290602490829084905af18015610fcc57610fb95750565b80610fc661097492610a63565b806101bd565b610ed3565b80610fc6610fde92610a63565b5f610f69565b6040517f23b872dd00000000000000000000000000000000000000000000000000000000602082015273ffffffffffffffffffffffffffffffffffffffff92831660248201529290911660448301526064808301939093529181526109749161104e608483610ab4565b61120c565b91909160405191602083015f807f095ea7b3000000000000000000000000000000000000000000000000000000009384845273ffffffffffffffffffffffffffffffffffffffff9081891660248901526044880152604487526110b587610a7c565b85169286519082855af1906110c8610c00565b82611144575b5081611139575b50156110e2575b50505050565b604051602081019190915273ffffffffffffffffffffffffffffffffffffffff9390931660248401525f60448085019190915283526111309261104e9061112a606482610ab4565b8261120c565b5f8080806110dc565b90503b15155f6110d5565b8051919250811591821561115c575b5050905f6110ce565b61116f92506020809183010191016111f4565b5f80611153565b73ffffffffffffffffffffffffffffffffffffffff5f5416330361119657565b60646040517f08c379a000000000000000000000000000000000000000000000000000000000815260206004820152602060248201527f4f776e61626c653a2063616c6c6572206973206e6f7420746865206f776e65726044820152fd5b90816020910312610114575180151581036101145790565b6040516112769173ffffffffffffffffffffffffffffffffffffffff1661123282610a98565b5f806020958685527f5361666545524332303a206c6f772d6c6576656c2063616c6c206661696c656487860152868151910182855af1611270610c00565b9161132b565b805190828215928315611313575b5050501561128f5750565b608490604051907f08c379a00000000000000000000000000000000000000000000000000000000082526004820152602a60248201527f5361666545524332303a204552433230206f7065726174696f6e20646964206e60448201527f6f742073756363656564000000000000000000000000000000000000000000006064820152fd5b61132393508201810191016111f4565b5f8281611284565b919290156113a6575081511561133f575090565b3b156113485790565b60646040517f08c379a000000000000000000000000000000000000000000000000000000000815260206004820152601d60248201527f416464726573733a2063616c6c20746f206e6f6e2d636f6e74726163740000006044820152fd5b8251909150156113b95750805190602001fd5b610c89906040519182917f08c379a000000000000000000000000000000000000000000000000000000000835260048301610c2f56fea26469706673582212209833a6604adc685802fa548b379198e2218db4c96fc7e9c1b3a51a68007065c464736f6c63430008170033"
}