{
  "address": "0x5313b68C88cC34ad269a5deD27aB5A6a1BE0fddd",
  "abi": [
    {
      "anonymous": false,
      "inputs": [
        {
          "indexed": true,
          "internalType": "address",
          "name": "from",
          "type": "address"
        },
        {
          "indexed": true,
          "internalType": "address",
          "name": "to",
          "type": "address"
        },
        {
          "indexed": false,
          "internalType": "uint256",
          "name": "amount",
          "type": "uint256"
        }
      ],
      "name": "ZkSyncEthDepositInitiated",
      "type": "event"
    },
    {
      "stateMutability": "payable",
      "type": "fallback"
    },
    {
      "inputs": [],
      "name": "baseL1Bridge",
      "outputs": [
        {
          "internalType": "contract OvmL1Bridge",
          "name": "",
          "type": "address"
        }
      ],
      "stateMutability": "view",
      "type": "function"
    },
    {
      "inputs": [],
      "name": "bobaL1Bridge",
      "outputs": [
        {
          "internalType": "contract OvmL1Bridge",
          "name": "",
          "type": "address"
        }
      ],
      "stateMutability": "view",
      "type": "function"
    },
    {
      "inputs": [
        {
          "internalType": "address",
          "name": "to",
          "type": "address"
        },
        {
          "internalType": "uint256",
          "name": "amount",
          "type": "uint256"
        },
        {
          "internalType": "uint32",
          "name": "l2Gas",
          "type": "uint32"
        },
        {
          "internalType": "uint256",
          "name": "chainId",
          "type": "uint256"
        }
      ],
      "name": "bridgeWethToOvm",
      "outputs": [],
      "stateMutability": "nonpayable",
      "type": "function"
    },
    {
      "inputs": [
        {
          "internalType": "address",
          "name": "to",
          "type": "address"
        },
        {
          "internalType": "uint256",
          "name": "amount",
          "type": "uint256"
        }
      ],
      "name": "bridgeWethToPolygon",
      "outputs": [],
      "stateMutability": "nonpayable",
      "type": "function"
    },
    {
      "inputs": [
        {
          "internalType": "address",
          "name": "to",
          "type": "address"
        },
        {
          "internalType": "uint256",
          "name": "amount",
          "type": "uint256"
        },
        {
          "internalType": "uint256",
          "name": "l2GasLimit",
          "type": "uint256"
        },
        {
          "internalType": "uint256",
          "name": "l2GasPerPubdataByteLimit",
          "type": "uint256"
        },
        {
          "internalType": "address",
          "name": "refundRecipient",
          "type": "address"
        }
      ],
      "name": "bridgeWethToZkSync",
      "outputs": [],
      "stateMutability": "nonpayable",
      "type": "function"
    },
    {
      "inputs": [],
      "name": "optimismL1Bridge",
      "outputs": [
        {
          "internalType": "contract OvmL1Bridge",
          "name": "",
          "type": "address"
        }
      ],
      "stateMutability": "view",
      "type": "function"
    },
    {
      "inputs": [],
      "name": "polygonL1Bridge",
      "outputs": [
        {
          "internalType": "contract PolygonL1Bridge",
          "name": "",
          "type": "address"
        }
      ],
      "stateMutability": "view",
      "type": "function"
    },
    {
      "inputs": [],
      "name": "weth",
      "outputs": [
        {
          "internalType": "contract Weth",
          "name": "",
          "type": "address"
        }
      ],
      "stateMutability": "view",
      "type": "function"
    },
    {
      "inputs": [],
      "name": "zkSyncL1Bridge",
      "outputs": [
        {
          "internalType": "contract ZkSyncL1Bridge",
          "name": "",
          "type": "address"
        }
      ],
      "stateMutability": "view",
      "type": "function"
    },
    {
      "stateMutability": "payable",
      "type": "receive"
    }
  ],
  "transactionHash": "0xd72d66601a2be33eb401b252248d3da6150d972875f8f74487a43a8a31cec029",
  "args": [],
  "numDeployments": 1,
  "solcInputHash": "7bf9f84bfe6167fc364476c00fbe3109",
  "bytecode": "0x61014080604052346101235773c02aaa39b223fe8d0a0e5c4f27ead9083c756cc26080527399c9fc46f92e8a1c0dec1b1747d010903e884be160a05273dc1664458d2f0b6090bea60a8793a4e66c2f1c0060c052733154cf16ccdb4c6d922629664174b904d80f2c3560e0526101009073a0c68c638235ee32657e8f720a23cec1bfc77c7782526101207332400084c286cf3e17e7b677ea9583e60a0003248152610efa9283610129843960805183818160f101528181610696015281816108d301526109dd015260a0518381816101cb015261053b015260c0518381816103e60152610e35015260e051838181610303015261061c0152518281816105ad01526107670152518181816108640152818161099f01528181610adb0152610b9d0152f35b600080fdfe60808060405260048036101561001c575b5050361561001a57005b005b600091823560e01c908163019f8e8114610deb57508063128d5f68146108f75780633fc8cef3146108885780635970eafa1461081957828163b3d5ccc31461064057508063b745c3f3146105d1578063c80dcc3814610562578063d3cdc8f9146104f05763e88650c40361001057346102e45760807ffffffffffffffffffffffffffffffffffffffffffffffffffffffffffffffffc3601126102e4576100c1610e59565b82602435916044359063ffffffff821682036104ec5773ffffffffffffffffffffffffffffffffffffffff6064357f00000000000000000000000000000000000000000000000000000000000000008216803b156104c957604080517f23b872dd000000000000000000000000000000000000000000000000000000008152338a820190815230602082015291820189905290879082908190606001038183865af19081156104e15787916104cd575b5050803b156104c957858760248a8360405195869485937f2e1a7d4d0000000000000000000000000000000000000000000000000000000085528401525af19081156104be5786916104a6575b5050600a81036102f757507f00000000000000000000000000000000000000000000000000000000000000001690813b156102f357610260946040518096819582947f9a2ac6d50000000000000000000000000000000000000000000000000000000084528a84019060809273ffffffffffffffffffffffffffffffffffffffff63ffffffff9216835216602082015260606040820152600060608201520190565b03925af180156102e8576102d0575b50606491505b6020604051917f08c379a0000000000000000000000000000000000000000000000000000000008352820152600f60248201527f496e76616c696420636861696e496400000000000000000000000000000000006044820152fd5b6102da8391610e81565b6102e4578161026f565b5080fd5b6040513d85823e3d90fd5b8380fd5b61210581036103c557507f00000000000000000000000000000000000000000000000000000000000000001690813b156102f357610398946040518096819582947f9a2ac6d50000000000000000000000000000000000000000000000000000000084528a84019060809273ffffffffffffffffffffffffffffffffffffffff63ffffffff9216835216602082015260606040820152600060608201520190565b03925af180156102e8576103b1575b5060649150610275565b6103bb8391610e81565b6102e457816103a7565b6101209192939450146103e0575b5050505060649150610275565b908592917f00000000000000000000000000000000000000000000000000000000000000001690813b156102f35761047b946040518096819582947f9a2ac6d50000000000000000000000000000000000000000000000000000000084528a84019060809273ffffffffffffffffffffffffffffffffffffffff63ffffffff9216835216602082015260606040820152600060608201520190565b03925af180156102e857610492575b8080806103d3565b61049c8391610e81565b6102e4578161048a565b6104af90610e81565b6104ba5784386101be565b8480fd5b6040513d88823e3d90fd5b8580fd5b6104d690610e81565b6104c9578538610171565b6040513d89823e3d90fd5b8280fd5b823461055f57807ffffffffffffffffffffffffffffffffffffffffffffffffffffffffffffffffc36011261055f57602060405173ffffffffffffffffffffffffffffffffffffffff7f0000000000000000000000000000000000000000000000000000000000000000168152f35b80fd5b823461055f57807ffffffffffffffffffffffffffffffffffffffffffffffffffffffffffffffffc36011261055f57602060405173ffffffffffffffffffffffffffffffffffffffff7f0000000000000000000000000000000000000000000000000000000000000000168152f35b823461055f57807ffffffffffffffffffffffffffffffffffffffffffffffffffffffffffffffffc36011261055f57602060405173ffffffffffffffffffffffffffffffffffffffff7f0000000000000000000000000000000000000000000000000000000000000000168152f35b8083346108165760407ffffffffffffffffffffffffffffffffffffffffffffffffffffffffffffffffc36011261081657610679610e59565b6024359073ffffffffffffffffffffffffffffffffffffffff90817f000000000000000000000000000000000000000000000000000000000000000016803b156104c957604080517f23b872dd0000000000000000000000000000000000000000000000000000000081523387820190815230602082015291820186905290879082908190606001038183865af19081156104e1578791610802575b5050803b156104c9578580916024604051809481937f2e1a7d4d000000000000000000000000000000000000000000000000000000008352898b8401525af19081156104be5786916107ee575b5050817f00000000000000000000000000000000000000000000000000000000000000001690813b156104c957859360249260405196879586947f4faa8a2600000000000000000000000000000000000000000000000000000000865216908401525af180156107e3576107d35750f35b6107dc90610e81565b61055f5780f35b6040513d84823e3d90fd5b6107f790610e81565b6104ba578487610762565b61080b90610e81565b6104c9578588610715565b50fd5b823461055f57807ffffffffffffffffffffffffffffffffffffffffffffffffffffffffffffffffc36011261055f57602060405173ffffffffffffffffffffffffffffffffffffffff7f0000000000000000000000000000000000000000000000000000000000000000168152f35b823461055f57807ffffffffffffffffffffffffffffffffffffffffffffffffffffffffffffffffc36011261055f57602060405173ffffffffffffffffffffffffffffffffffffffff7f0000000000000000000000000000000000000000000000000000000000000000168152f35b50903461055f5760a07ffffffffffffffffffffffffffffffffffffffffffffffffffffffffffffffffc36011261055f57610930610e59565b91604435606435936084359273ffffffffffffffffffffffffffffffffffffffff928385168095036104c957604051907fb473318e0000000000000000000000000000000000000000000000000000000082523a838301526024958187840152886044840152602083606481897f0000000000000000000000000000000000000000000000000000000000000000165afa928315610de0578893610d4d575b50863583018311610d2257857f000000000000000000000000000000000000000000000000000000000000000016803b15610d0057604080517f23b872dd000000000000000000000000000000000000000000000000000000008152338782019081523060208201528a35870192810192909252908a9082908190606001038183865af18015610d1757610d04575b50803b15610d005788809189604051809481937f2e1a7d4d00000000000000000000000000000000000000000000000000000000835283358a018b8401525af18015610cf557908991610ce1575b505060405191602083019280841067ffffffffffffffff851117610cb457899a8460409b98999a9b52878252897f0000000000000000000000000000000000000000000000000000000000000000163b15610cb05760409a989695949a99979951957feb6724190000000000000000000000000000000000000000000000000000000087528888169087015288358987015260e060448701528960e48701526101048601926064870152608486015261010060a48601525180915261012490818501918160051b860101999189905b828210610c12575050505082809281808b8b979560c4899701520391893501887f0000000000000000000000000000000000000000000000000000000000000000165af180156107e357610bfe575b50506040519235835216907fa3e601130860a6f97b42655ad74f631ddf0c8e5adaa98402fded9c09bc35a44060203392a380f35b610c0790610e81565b6102f3578385610bca565b7ffffffffffffffffffffffffffffffffffffffffffffffffffffffffffffffedc878d969596030181528b855180518092528c5b828110610c9a575050808d0160209081018d9052601f919091017fffffffffffffffffffffffffffffffffffffffffffffffffffffffffffffffe016909c018c019b93948401936001929092019101610b7b565b808f602082818095870101519201015201610c46565b8780fd5b886041877f4e487b7100000000000000000000000000000000000000000000000000000000600052526000fd5b610cea90610e81565b610cb0578738610aac565b6040513d8b823e3d90fd5b8880fd5b610d1090999199610e81565b9738610a5e565b6040513d8c823e3d90fd5b86886011867f4e487b7100000000000000000000000000000000000000000000000000000000835252fd5b90925060203d602011610dd9575b7fffffffffffffffffffffffffffffffffffffffffffffffffffffffffffffffe0601f820116820182811067ffffffffffffffff821117610dae57602091839160405281010312610cb0575191386109cf565b888a6041887f4e487b7100000000000000000000000000000000000000000000000000000000835252fd5b503d610d5b565b6040513d8a823e3d90fd5b8390346102e457817ffffffffffffffffffffffffffffffffffffffffffffffffffffffffffffffffc3601126102e45760209073ffffffffffffffffffffffffffffffffffffffff7f0000000000000000000000000000000000000000000000000000000000000000168152f35b6004359073ffffffffffffffffffffffffffffffffffffffff82168203610e7c57565b600080fd5b67ffffffffffffffff8111610e9557604052565b7f4e487b7100000000000000000000000000000000000000000000000000000000600052604160045260246000fdfea26469706673582212203de76e9dda6abdb490766bc12531189f56ef7d9944b25308f8837fa97aa2835a64736f6c63430008120033",
  "devdoc": {
    "kind": "dev",
    "methods": {},
    "version": 1
  },
  "userdoc": {
    "kind": "user",
    "methods": {},
    "notice": "Contract deployed on Ethereum helps relay bots atomically unwrap and bridge WETH over the canonical chain bridges for OVM chains, ZkSync and Polygon. Needed as these chains only support bridging of ETH, not WETH.",
    "version": 1
  },
  "storageLayout": {
    "storage": [],
    "types": null
  }
}