{
  "address": "0x6e41f79772c3CF7D6d15d17d899e129d5aAAA740",
  "abi": [
    {
      "anonymous": false,
      "inputs": [
        {
          "indexed": true,
          "internalType": "address",
          "name": "from",
          "type": "address"
        },
        {
          "indexed": true,
          "internalType": "address",
          "name": "to",
          "type": "address"
        },
        {
          "indexed": false,
          "internalType": "uint256",
          "name": "amount",
          "type": "uint256"
        }
      ],
      "name": "LineaEthDepositInitiated",
      "type": "event"
    },
    {
      "anonymous": false,
      "inputs": [
        {
          "indexed": true,
          "internalType": "address",
          "name": "from",
          "type": "address"
        },
        {
          "indexed": true,
          "internalType": "address",
          "name": "to",
          "type": "address"
        },
        {
          "indexed": false,
          "internalType": "uint256",
          "name": "amount",
          "type": "uint256"
        }
      ],
      "name": "ZkSyncEthDepositInitiated",
      "type": "event"
    },
    {
      "stateMutability": "payable",
      "type": "fallback"
    },
    {
      "inputs": [],
      "name": "baseL1Bridge",
      "outputs": [
        {
          "internalType": "contract OvmL1Bridge",
          "name": "",
          "type": "address"
        }
      ],
      "stateMutability": "view",
      "type": "function"
    },
    {
      "inputs": [],
      "name": "bobaL1Bridge",
      "outputs": [
        {
          "internalType": "contract OvmL1Bridge",
          "name": "",
          "type": "address"
        }
      ],
      "stateMutability": "view",
      "type": "function"
    },
    {
      "inputs": [
        {
          "internalType": "address",
          "name": "to",
          "type": "address"
        },
        {
          "internalType": "uint256",
          "name": "amount",
          "type": "uint256"
        }
      ],
      "name": "bridgeWethToLinea",
      "outputs": [],
      "stateMutability": "payable",
      "type": "function"
    },
    {
      "inputs": [
        {
          "internalType": "address",
          "name": "to",
          "type": "address"
        },
        {
          "internalType": "uint256",
          "name": "amount",
          "type": "uint256"
        },
        {
          "internalType": "uint32",
          "name": "l2Gas",
          "type": "uint32"
        },
        {
          "internalType": "uint256",
          "name": "chainId",
          "type": "uint256"
        }
      ],
      "name": "bridgeWethToOvm",
      "outputs": [],
      "stateMutability": "nonpayable",
      "type": "function"
    },
    {
      "inputs": [
        {
          "internalType": "address",
          "name": "to",
          "type": "address"
        },
        {
          "internalType": "uint256",
          "name": "amount",
          "type": "uint256"
        }
      ],
      "name": "bridgeWethToPolygon",
      "outputs": [],
      "stateMutability": "nonpayable",
      "type": "function"
    },
    {
      "inputs": [
        {
          "internalType": "address",
          "name": "to",
          "type": "address"
        },
        {
          "internalType": "uint256",
          "name": "amount",
          "type": "uint256"
        },
        {
          "internalType": "uint256",
          "name": "l2GasLimit",
          "type": "uint256"
        },
        {
          "internalType": "uint256",
          "name": "l2GasPerPubdataByteLimit",
          "type": "uint256"
        },
        {
          "internalType": "address",
          "name": "refundRecipient",
          "type": "address"
        }
      ],
      "name": "bridgeWethToZkSync",
      "outputs": [],
      "stateMutability": "nonpayable",
      "type": "function"
    },
    {
      "inputs": [],
      "name": "lineaL1MessageService",
      "outputs": [
        {
          "internalType": "contract LineaL1MessageService",
          "name": "",
          "type": "address"
        }
      ],
      "stateMutability": "view",
      "type": "function"
    },
    {
      "inputs": [],
      "name": "optimismL1Bridge",
      "outputs": [
        {
          "internalType": "contract OvmL1Bridge",
          "name": "",
          "type": "address"
        }
      ],
      "stateMutability": "view",
      "type": "function"
    },
    {
      "inputs": [],
      "name": "polygonL1Bridge",
      "outputs": [
        {
          "internalType": "contract PolygonL1Bridge",
          "name": "",
          "type": "address"
        }
      ],
      "stateMutability": "view",
      "type": "function"
    },
    {
      "inputs": [],
      "name": "weth",
      "outputs": [
        {
          "internalType": "contract Weth",
          "name": "",
          "type": "address"
        }
      ],
      "stateMutability": "view",
      "type": "function"
    },
    {
      "inputs": [],
      "name": "zkSyncL1Bridge",
      "outputs": [
        {
          "internalType": "contract ZkSyncL1Bridge",
          "name": "",
          "type": "address"
        }
      ],
      "stateMutability": "view",
      "type": "function"
    },
    {
      "stateMutability": "payable",
      "type": "receive"
    }
  ],
  "transactionHash": "0xc63bae32e6775468f9484b83a7082197a03b6cad4441daac3a412c52f7808c8f",
  "args": [],
  "numDeployments": 3,
  "solcInputHash": "30dfeae412ba7ba24be6d29ee0e15ed9",
  "bytecode": "0x61016080604052346101545773c02aaa39b223fe8d0a0e5c4f27ead9083c756cc26080527399c9fc46f92e8a1c0dec1b1747d010903e884be160a05273dc1664458d2f0b6090bea60a8793a4e66c2f1c0060c052733154cf16ccdb4c6d922629664174b904d80f2c3560e0526101009073a0c68c638235ee32657e8f720a23cec1bfc77c7782526101207332400084c286cf3e17e7b677ea9583e60a00032481526101409073d19d4b5d358258f05d7b411e21a1460d11b0876f82526110fd93846101598539608051848181610105015281816106a9015281816108da015281816109500152610c19015260a0518481816101e101526104e1015260c05184818161035c0152611005015260e0518481816102ba015261062e015251838181610550015261077a01525182818161086b01528181610bd901528181610d0f0152610dce0152518181816105bf0152610a210152f35b5f80fdfe6080806040526004908136101561001d575b5050361561001b57005b005b5f905f3560e01c908163019f8e8114610fbd57508063128d5f6814610b3457806336918a97146108fe5780633fc8cef31461088f5780635970eafa14610820578063b3d5ccc314610652578063b745c3f3146105e3578063c04b953414610574578063c80dcc3814610505578063d3cdc8f9146104965763e88650c403610011573461029a5760807ffffffffffffffffffffffffffffffffffffffffffffffffffffffffffffffffc36011261029a576100d5611029565b916024359060443563ffffffff811681036104925773ffffffffffffffffffffffffffffffffffffffff946064357f00000000000000000000000000000000000000000000000000000000000000008716803b1561046f57604080517f23b872dd0000000000000000000000000000000000000000000000000000000081523387820190815230602082015291820188905290889082908190606001038183865af1801561048757908891610473575b5050803b1561046f578680916024604051809481937f2e1a7d4d0000000000000000000000000000000000000000000000000000000083528b8b8401525af1801561046457908791610450575b5050600a81036102ac575084957f00000000000000000000000000000000000000000000000000000000000000001690813b156102a857610277948694604051968795869485937f9a2ac6d500000000000000000000000000000000000000000000000000000000855284019060809273ffffffffffffffffffffffffffffffffffffffff63ffffffff92168352166020820152606060408201525f60608201520190565b03925af1801561029d5761028a57505080f35b6102939061104c565b61029a5780f35b80fd5b6040513d84823e3d90fd5b8580fd5b6121058103610350575084957f00000000000000000000000000000000000000000000000000000000000000001690813b156102a857610277948694604051968795869485937f9a2ac6d500000000000000000000000000000000000000000000000000000000855284019060809273ffffffffffffffffffffffffffffffffffffffff63ffffffff92168352166020820152606060408201525f60608201520190565b610120036103f25784957f00000000000000000000000000000000000000000000000000000000000000001690813b156102a857610277948694604051968795869485937f9a2ac6d500000000000000000000000000000000000000000000000000000000855284019060809273ffffffffffffffffffffffffffffffffffffffff63ffffffff92168352166020820152606060408201525f60608201520190565b6064836020604051917f08c379a0000000000000000000000000000000000000000000000000000000008352820152601360248201527f496e76616c6964204f564d20636861696e4964000000000000000000000000006044820152fd5b6104599061104c565b6102a857855f6101d2565b6040513d89823e3d90fd5b8680fd5b61047c9061104c565b61046f57865f610185565b6040513d8a823e3d90fd5b8380fd5b503461029a57807ffffffffffffffffffffffffffffffffffffffffffffffffffffffffffffffffc36011261029a57602060405173ffffffffffffffffffffffffffffffffffffffff7f0000000000000000000000000000000000000000000000000000000000000000168152f35b503461029a57807ffffffffffffffffffffffffffffffffffffffffffffffffffffffffffffffffc36011261029a57602060405173ffffffffffffffffffffffffffffffffffffffff7f0000000000000000000000000000000000000000000000000000000000000000168152f35b503461029a57807ffffffffffffffffffffffffffffffffffffffffffffffffffffffffffffffffc36011261029a57602060405173ffffffffffffffffffffffffffffffffffffffff7f0000000000000000000000000000000000000000000000000000000000000000168152f35b503461029a57807ffffffffffffffffffffffffffffffffffffffffffffffffffffffffffffffffc36011261029a57602060405173ffffffffffffffffffffffffffffffffffffffff7f0000000000000000000000000000000000000000000000000000000000000000168152f35b5080913461081d5760407ffffffffffffffffffffffffffffffffffffffffffffffffffffffffffffffffc36011261081d5761068c611029565b6024359073ffffffffffffffffffffffffffffffffffffffff90817f000000000000000000000000000000000000000000000000000000000000000016803b156102a857604080517f23b872dd0000000000000000000000000000000000000000000000000000000081523387820190815230602082015291820186905290879082908190606001038183865af1908115610464578791610809575b5050803b156102a8578580916024604051809481937f2e1a7d4d000000000000000000000000000000000000000000000000000000008352898b8401525af19081156107fe5786916107e6575b5050817f00000000000000000000000000000000000000000000000000000000000000001690813b156102a857859360249260405196879586947f4faa8a2600000000000000000000000000000000000000000000000000000000865216908401525af1801561029d5761028a5750f35b6107ef9061104c565b6107fa57845f610775565b8480fd5b6040513d88823e3d90fd5b6108129061104c565b6102a857855f610728565b50fd5b503461029a57807ffffffffffffffffffffffffffffffffffffffffffffffffffffffffffffffffc36011261029a57602060405173ffffffffffffffffffffffffffffffffffffffff7f0000000000000000000000000000000000000000000000000000000000000000168152f35b503461029a57807ffffffffffffffffffffffffffffffffffffffffffffffffffffffffffffffffc36011261029a57602060405173ffffffffffffffffffffffffffffffffffffffff7f0000000000000000000000000000000000000000000000000000000000000000168152f35b509060407ffffffffffffffffffffffffffffffffffffffffffffffffffffffffffffffffc360112610b3057610932611029565b826024359173ffffffffffffffffffffffffffffffffffffffff90817f000000000000000000000000000000000000000000000000000000000000000016803b1561049257604080517f23b872dd0000000000000000000000000000000000000000000000000000000081523388820190815230602082015291820187905290859082908190606001038183865af1908115610b25578591610b11575b5050803b15610492578380916024604051809481937f2e1a7d4d0000000000000000000000000000000000000000000000000000000083528a8c8401525af1908115610b06578491610af2575b5050817f00000000000000000000000000000000000000000000000000000000000000001691610a4c348661108d565b833b156107fa57849260849160405195869485937f9f3ce55a00000000000000000000000000000000000000000000000000000000855216809a840152346024840152606060448401528560648401525af1801561029d57610ada575b50506040519081527f61ed67a945fe5f4d777919629ad666c7e81d66dc5fbaf4c143edd000c15d67dd60203392a380f35b610ae39061104c565b610aee57825f610aa9565b8280fd5b610afb9061104c565b610aee57825f610a1c565b6040513d86823e3d90fd5b610b1a9061104c565b61049257835f6109cf565b6040513d87823e3d90fd5b5080fd5b5034610f515760a07ffffffffffffffffffffffffffffffffffffffffffffffffffffffffffffffffc360112610f5157610b6c611029565b602490604435906064359460843573ffffffffffffffffffffffffffffffffffffffff93848216809203610f51576040517fb473318e0000000000000000000000000000000000000000000000000000000081523a848201528187820152886044820152602081606481897f0000000000000000000000000000000000000000000000000000000000000000165afa8015610f46575f90610f55575b610c15915087359061108d565b91857f000000000000000000000000000000000000000000000000000000000000000016803b15610f5157604080517f23b872dd00000000000000000000000000000000000000000000000000000000815233878201908152306020820152918201869052905f9082908190606001038183865af18015610f4657610f33575b50803b15610f2f5788809189604051809481937f2e1a7d4d000000000000000000000000000000000000000000000000000000008352898b8401525af18015610f2457908991610f10575b505060405191602083019280841067ffffffffffffffff851117610ee557899a8460409b98999a9b52878252897f0000000000000000000000000000000000000000000000000000000000000000163b15610ee15760409a989695949a99979951957feb6724190000000000000000000000000000000000000000000000000000000087528888169087015288358987015260e060448701528960e48701526101048601926064870152608486015261010060a48601525180915261012490818501918160051b860101999189905b828210610e43575050505082809281808b8b979560c4899701520391887f0000000000000000000000000000000000000000000000000000000000000000165af1801561029d57610e2f575b50506040519235835216907fa3e601130860a6f97b42655ad74f631ddf0c8e5adaa98402fded9c09bc35a44060203392a380f35b610e389061104c565b610492578385610dfb565b7ffffffffffffffffffffffffffffffffffffffffffffffffffffffffffffffedc878d969596030181528b855180518092528c5b828110610ecb575050808d0160209081018d9052601f919091017fffffffffffffffffffffffffffffffffffffffffffffffffffffffffffffffe016909c018c019b93948401936001929092019101610daf565b808f602082818095870101519201015201610e77565b8780fd5b886041877f4e487b71000000000000000000000000000000000000000000000000000000005f52525ffd5b610f199061104c565b610ee157875f610ce0565b6040513d8b823e3d90fd5b8880fd5b610f3e91995061104c565b5f975f610c95565b6040513d5f823e3d90fd5b5f80fd5b5060203d602011610fb6575b7fffffffffffffffffffffffffffffffffffffffffffffffffffffffffffffffe0601f820116820182811067ffffffffffffffff821117610ee557602091839160405281010312610f5157610c159051610c08565b503d610f61565b34610f51575f7ffffffffffffffffffffffffffffffffffffffffffffffffffffffffffffffffc360112610f515760209073ffffffffffffffffffffffffffffffffffffffff7f0000000000000000000000000000000000000000000000000000000000000000168152f35b6004359073ffffffffffffffffffffffffffffffffffffffff82168203610f5157565b67ffffffffffffffff811161106057604052565b7f4e487b71000000000000000000000000000000000000000000000000000000005f52604160045260245ffd5b9190820180921161109a57565b7f4e487b71000000000000000000000000000000000000000000000000000000005f52601160045260245ffdfea2646970667358221220b493edd1358f39227ec9f65101f64f280c9134d4324520aa2669fc1fade687f764736f6c63430008170033",
  "devdoc": {
    "kind": "dev",
    "methods": {},
    "version": 1
  },
  "userdoc": {
    "kind": "user",
    "methods": {},
    "notice": "Contract deployed on Ethereum helps relay bots atomically unwrap and bridge WETH over the canonical chain bridges for Optimism, Base, Boba, ZkSync, Linea, and Polygon. Needed as these chains only support bridging of ETH, not WETH.",
    "version": 1
  },
  "storageLayout": {
    "storage": [],
    "types": null
  }
}