{
  "address": "0x2A4B96f117094f5602572B7a5FEb459bA9ad22E6",
  "abi": [
    {
      "inputs": [],
      "name": "InvalidBridgeFunction",
      "type": "error"
    },
    {
      "anonymous": false,
      "inputs": [
        {
          "indexed": true,
          "internalType": "address",
          "name": "from",
          "type": "address"
        },
        {
          "indexed": true,
          "internalType": "uint256",
          "name": "chainId",
          "type": "uint256"
        },
        {
          "indexed": false,
          "internalType": "uint256",
          "name": "amount",
          "type": "uint256"
        }
      ],
      "name": "AtomicWethDepositInitiated",
      "type": "event"
    },
    {
      "anonymous": false,
      "inputs": [
        {
          "indexed": true,
          "internalType": "address",
          "name": "previousOwner",
          "type": "address"
        },
        {
          "indexed": true,
          "internalType": "address",
          "name": "newOwner",
          "type": "address"
        }
      ],
      "name": "OwnershipTransferred",
      "type": "event"
    },
    {
      "stateMutability": "payable",
      "type": "fallback"
    },
    {
      "inputs": [],
      "name": "WETH",
      "outputs": [
        {
          "internalType": "contract Weth",
          "name": "",
          "type": "address"
        }
      ],
      "stateMutability": "view",
      "type": "function"
    },
    {
      "inputs": [
        {
          "internalType": "uint256",
          "name": "chainId",
          "type": "uint256"
        },
        {
          "internalType": "uint256",
          "name": "value",
          "type": "uint256"
        },
        {
          "internalType": "bytes",
          "name": "bridgeCallData",
          "type": "bytes"
        }
      ],
      "name": "bridgeWeth",
      "outputs": [],
      "stateMutability": "nonpayable",
      "type": "function"
    },
    {
      "inputs": [
        {
          "internalType": "bytes[]",
          "name": "data",
          "type": "bytes[]"
        }
      ],
      "name": "multicall",
      "outputs": [
        {
          "internalType": "bytes[]",
          "name": "results",
          "type": "bytes[]"
        }
      ],
      "stateMutability": "nonpayable",
      "type": "function"
    },
    {
      "inputs": [],
      "name": "owner",
      "outputs": [
        {
          "internalType": "address",
          "name": "",
          "type": "address"
        }
      ],
      "stateMutability": "view",
      "type": "function"
    },
    {
      "inputs": [],
      "name": "renounceOwnership",
      "outputs": [],
      "stateMutability": "nonpayable",
      "type": "function"
    },
    {
      "inputs": [
        {
          "internalType": "address",
          "name": "newOwner",
          "type": "address"
        }
      ],
      "name": "transferOwnership",
      "outputs": [],
      "stateMutability": "nonpayable",
      "type": "function"
    },
    {
      "inputs": [
        {
          "internalType": "uint256",
          "name": "chainId",
          "type": "uint256"
        },
        {
          "internalType": "address",
          "name": "bridge",
          "type": "address"
        },
        {
          "internalType": "bytes4",
          "name": "funcSelector",
          "type": "bytes4"
        }
      ],
      "name": "whitelistBridge",
      "outputs": [],
      "stateMutability": "nonpayable",
      "type": "function"
    },
    {
      "inputs": [
        {
          "internalType": "uint256",
          "name": "",
          "type": "uint256"
        }
      ],
      "name": "whitelistedBridgeFunctions",
      "outputs": [
        {
          "internalType": "address",
          "name": "bridge",
          "type": "address"
        },
        {
          "internalType": "bytes4",
          "name": "funcSelector",
          "type": "bytes4"
        }
      ],
      "stateMutability": "view",
      "type": "function"
    },
    {
      "stateMutability": "payable",
      "type": "receive"
    }
  ],
  "transactionHash": "0x37ac86ed77f5afc5d97abb2f320a851f83f3236db9238f990b91df4fc0c6389c",
  "args": [],
  "numDeployments": 10,
  "solcInputHash": "c56727864345439ef19e4d0a5f7bee68",
  "bytecode": "0x60a08060405234610089575f543360018060a01b0382167f8be0079c531659141344cd1fd0a4f28419497f9722a3daafe3b4186f6b6457e05f80a36001600160a81b0319163360ff60a01b191617600160a01b175f5573c02aaa39b223fe8d0a0e5c4f27ead9083c756cc2608052610f5a908161008e82396080518181816103cc01526104b30152f35b5f80fdfe60806040526004361015610018575b361561001657005b005b5f3560e01c80633a03c4a914610097578063715018a6146100925780638da5cb5b1461008d578063ac9650d814610088578063ad5c464814610083578063d11ca2271461007e578063f2fde38b146100795763f6d65c7d0361000e576108a3565b6107b9565b6103f0565b610382565b6102fa565b6101c5565b61012b565b3461011d5760207ffffffffffffffffffffffffffffffffffffffffffffffffffffffffffffffffc36011261011d576004355f5260016020527fffffffff0000000000000000000000000000000000000000000000000000000060405f205473ffffffffffffffffffffffffffffffffffffffff811660805260401b1660a05260406080f35b5f80fd5b5f91031261011d57565b3461011d575f7ffffffffffffffffffffffffffffffffffffffffffffffffffffffffffffffffc36011261011d57610161610e31565b5f73ffffffffffffffffffffffffffffffffffffffff81547fffffffffffffffffffffffff000000000000000000000000000000000000000081168355167f8be0079c531659141344cd1fd0a4f28419497f9722a3daafe3b4186f6b6457e08280a3005b3461011d575f7ffffffffffffffffffffffffffffffffffffffffffffffffffffffffffffffffc36011261011d57602073ffffffffffffffffffffffffffffffffffffffff5f5416604051908152f35b5f5b8381106102265750505f910152565b8181015183820152602001610217565b907fffffffffffffffffffffffffffffffffffffffffffffffffffffffffffffffe0601f60209361027281518092818752878088019101610215565b0116010190565b6020808201906020835283518092526040830192602060408460051b8301019501935f915b8483106102ae5750505050505090565b90919293949584806102ea837fffffffffffffffffffffffffffffffffffffffffffffffffffffffffffffffc086600196030187528a51610236565b980193019301919493929061029e565b3461011d5760207ffffffffffffffffffffffffffffffffffffffffffffffffffffffffffffffffc36011261011d5767ffffffffffffffff60043581811161011d573660238201121561011d57806004013591821161011d573660248360051b8301011161011d5761037e9160246103729201610c8c565b60405191829182610279565b0390f35b3461011d575f7ffffffffffffffffffffffffffffffffffffffffffffffffffffffffffffffffc36011261011d57602060405173ffffffffffffffffffffffffffffffffffffffff7f0000000000000000000000000000000000000000000000000000000000000000168152f35b3461011d5760607ffffffffffffffffffffffffffffffffffffffffffffffffffffffffffffffffc36011261011d576004803590602435906044359067ffffffffffffffff9081831161011d573660238401121561011d578281013591821161011d576024830192602483369201011161011d5760ff5f5460a01c16156107385761049c7fffffffffffffffffffffff00ffffffffffffffffffffffffffffffffffffffff5f54165f55565b73ffffffffffffffffffffffffffffffffffffffff7f000000000000000000000000000000000000000000000000000000000000000016803b1561011d57604080517f23b872dd00000000000000000000000000000000000000000000000000000000815233848201908152306020820152918201879052905f9082908190606001038183865af1801561072057610725575b50803b1561011d575f60405180927f2e1a7d4d0000000000000000000000000000000000000000000000000000000082528183816105748b8983019190602083019252565b03925af1801561072057610707575b5061059e610599865f52600160205260405f2090565b610d53565b906105cc60208301517fffffffff000000000000000000000000000000000000000000000000000000001690565b7fffffffff0000000000000000000000000000000000000000000000000000000061061f6105fa8688610da7565b7fffffffff000000000000000000000000000000000000000000000000000000001690565b9116036106df575061066f925f928561064d85945173ffffffffffffffffffffffffffffffffffffffff1690565b9261065d60405180948193610b8f565b03925af1610669610bd6565b90610deb565b60405190815233907f07eaada8c9bcef700c8d25524866ae64bf4c9586cd632e43aa2ab78fc8dfef9e90602090a3610016740100000000000000000000000000000000000000007fffffffffffffffffffffff00ffffffffffffffffffffffffffffffffffffffff5f5416175f55565b6040517f172b8892000000000000000000000000000000000000000000000000000000008152fd5b8061071461071a92610a2a565b80610121565b5f610583565b610f19565b8061071461073292610a2a565b5f61052f565b6064906020604051917f08c379a0000000000000000000000000000000000000000000000000000000008352820152601f60248201527f5265656e7472616e637947756172643a207265656e7472616e742063616c6c006044820152fd5b6024359073ffffffffffffffffffffffffffffffffffffffff8216820361011d57565b3461011d5760207ffffffffffffffffffffffffffffffffffffffffffffffffffffffffffffffffc36011261011d5760043573ffffffffffffffffffffffffffffffffffffffff811680820361011d57610811610e31565b1561081f5761001690610eaf565b60846040517f08c379a000000000000000000000000000000000000000000000000000000000815260206004820152602660248201527f4f776e61626c653a206e6577206f776e657220697320746865207a65726f206160448201527f64647265737300000000000000000000000000000000000000000000000000006064820152fd5b3461011d5760607ffffffffffffffffffffffffffffffffffffffffffffffffffffffffffffffffc36011261011d576108da610796565b6044357fffffffff00000000000000000000000000000000000000000000000000000000811680910361011d5761090f610e31565b6109926040519261091f84610a09565b73ffffffffffffffffffffffffffffffffffffffff8091168452602084019283526004355f52600160205260405f20935116839073ffffffffffffffffffffffffffffffffffffffff167fffffffffffffffffffffffff0000000000000000000000000000000000000000825416179055565b5181547fffffffffffffffff00000000ffffffffffffffffffffffffffffffffffffffff1660409190911c77ffffffff000000000000000000000000000000000000000016179055005b7f4e487b71000000000000000000000000000000000000000000000000000000005f52604160045260245ffd5b6040810190811067ffffffffffffffff821117610a2557604052565b6109dc565b67ffffffffffffffff8111610a2557604052565b90601f7fffffffffffffffffffffffffffffffffffffffffffffffffffffffffffffffe0910116810190811067ffffffffffffffff821117610a2557604052565b67ffffffffffffffff8111610a255760051b60200190565b90610aa182610a7f565b610aae6040519182610a3e565b8281527fffffffffffffffffffffffffffffffffffffffffffffffffffffffffffffffe0610adc8294610a7f565b01905f5b828110610aec57505050565b806060602080938501015201610ae0565b7f4e487b71000000000000000000000000000000000000000000000000000000005f52603260045260245ffd5b9190811015610b8a5760051b810135907fffffffffffffffffffffffffffffffffffffffffffffffffffffffffffffffe18136030182121561011d57019081359167ffffffffffffffff831161011d57602001823603811361011d579190565b610afd565b908092918237015f815290565b67ffffffffffffffff8111610a2557601f017fffffffffffffffffffffffffffffffffffffffffffffffffffffffffffffffe01660200190565b3d15610c00573d90610be782610b9c565b91610bf56040519384610a3e565b82523d5f602084013e565b606090565b60208183031261011d5780519067ffffffffffffffff821161011d570181601f8201121561011d578051610c3881610b9c565b92610c466040519485610a3e565b8184526020828401011161011d57610c649160208085019101610215565b90565b906020610c64928181520190610236565b8051821015610b8a5760209160051b010190565b919091610c9883610a97565b925f5b818110610ca757505050565b5f80610cb4838587610b2a565b60409391610cc6855180938193610b8f565b0390305af490610cd4610bd6565b9115610cfb575090600191610ce98288610c78565b52610cf48187610c78565b5001610c9b565b90604481511061011d57610d4f610d2060049283810151602480918301019101610c05565b92519283927f08c379a00000000000000000000000000000000000000000000000000000000084528301610c67565b0390fd5b90604051610d6081610a09565b915473ffffffffffffffffffffffffffffffffffffffff8116835260401b7fffffffff00000000000000000000000000000000000000000000000000000000166020830152565b7fffffffff000000000000000000000000000000000000000000000000000000009035818116939260048110610ddc57505050565b60040360031b82901b16169150565b15610df35750565b610d4f906040519182917f08c379a0000000000000000000000000000000000000000000000000000000008352602060048401526024830190610236565b73ffffffffffffffffffffffffffffffffffffffff5f54163303610e5157565b60646040517f08c379a000000000000000000000000000000000000000000000000000000000815260206004820152602060248201527f4f776e61626c653a2063616c6c6572206973206e6f7420746865206f776e65726044820152fd5b5f549073ffffffffffffffffffffffffffffffffffffffff80911691827fffffffffffffffffffffffff00000000000000000000000000000000000000008216175f55167f8be0079c531659141344cd1fd0a4f28419497f9722a3daafe3b4186f6b6457e05f80a3565b6040513d5f823e3d90fdfea26469706673582212208938b7dc084187cbe8fdd1d8ab76233bbfc1fa24777137f31cb598ef26630adc64736f6c63430008170033"
}