{
  "address": "0xE06B3B73708C38a72107e4afdBA37C76eCB3A57B",
  "abi": [
    {
      "anonymous": false,
      "inputs": [
        {
          "indexed": true,
          "internalType": "address",
          "name": "from",
          "type": "address"
        },
        {
          "indexed": true,
          "internalType": "address",
          "name": "to",
          "type": "address"
        },
        {
          "indexed": false,
          "internalType": "uint256",
          "name": "amount",
          "type": "uint256"
        }
      ],
      "name": "LineaEthDepositInitiated",
      "type": "event"
    },
    {
      "anonymous": false,
      "inputs": [
        {
          "indexed": true,
          "internalType": "uint256",
          "name": "chainId",
          "type": "uint256"
        },
        {
          "indexed": true,
          "internalType": "address",
          "name": "from",
          "type": "address"
        },
        {
          "indexed": true,
          "internalType": "address",
          "name": "to",
          "type": "address"
        },
        {
          "indexed": false,
          "internalType": "uint256",
          "name": "amount",
          "type": "uint256"
        }
      ],
      "name": "OvmEthDepositInitiated",
      "type": "event"
    },
    {
      "anonymous": false,
      "inputs": [
        {
          "indexed": true,
          "internalType": "address",
          "name": "from",
          "type": "address"
        },
        {
          "indexed": true,
          "internalType": "address",
          "name": "to",
          "type": "address"
        },
        {
          "indexed": false,
          "internalType": "uint256",
          "name": "amount",
          "type": "uint256"
        }
      ],
      "name": "ZkSyncEthDepositInitiated",
      "type": "event"
    },
    {
      "stateMutability": "payable",
      "type": "fallback"
    },
    {
      "inputs": [],
      "name": "baseL1Bridge",
      "outputs": [
        {
          "internalType": "contract OvmL1Bridge",
          "name": "",
          "type": "address"
        }
      ],
      "stateMutability": "view",
      "type": "function"
    },
    {
      "inputs": [],
      "name": "blastL1Bridge",
      "outputs": [
        {
          "internalType": "contract OvmL1Bridge",
          "name": "",
          "type": "address"
        }
      ],
      "stateMutability": "view",
      "type": "function"
    },
    {
      "inputs": [],
      "name": "bobaL1Bridge",
      "outputs": [
        {
          "internalType": "contract OvmL1Bridge",
          "name": "",
          "type": "address"
        }
      ],
      "stateMutability": "view",
      "type": "function"
    },
    {
      "inputs": [
        {
          "internalType": "address",
          "name": "to",
          "type": "address"
        },
        {
          "internalType": "uint256",
          "name": "amount",
          "type": "uint256"
        }
      ],
      "name": "bridgeWethToLinea",
      "outputs": [],
      "stateMutability": "payable",
      "type": "function"
    },
    {
      "inputs": [
        {
          "internalType": "address",
          "name": "to",
          "type": "address"
        },
        {
          "internalType": "uint256",
          "name": "amount",
          "type": "uint256"
        },
        {
          "internalType": "uint32",
          "name": "l2Gas",
          "type": "uint32"
        },
        {
          "internalType": "uint256",
          "name": "chainId",
          "type": "uint256"
        }
      ],
      "name": "bridgeWethToOvm",
      "outputs": [],
      "stateMutability": "nonpayable",
      "type": "function"
    },
    {
      "inputs": [
        {
          "internalType": "address",
          "name": "to",
          "type": "address"
        },
        {
          "internalType": "uint256",
          "name": "amount",
          "type": "uint256"
        }
      ],
      "name": "bridgeWethToPolygon",
      "outputs": [],
      "stateMutability": "nonpayable",
      "type": "function"
    },
    {
      "inputs": [
        {
          "internalType": "address",
          "name": "to",
          "type": "address"
        },
        {
          "internalType": "uint256",
          "name": "amount",
          "type": "uint256"
        },
        {
          "internalType": "uint256",
          "name": "l2GasLimit",
          "type": "uint256"
        },
        {
          "internalType": "uint256",
          "name": "l2GasPerPubdataByteLimit",
          "type": "uint256"
        },
        {
          "internalType": "address",
          "name": "refundRecipient",
          "type": "address"
        }
      ],
      "name": "bridgeWethToZkSync",
      "outputs": [],
      "stateMutability": "nonpayable",
      "type": "function"
    },
    {
      "inputs": [],
      "name": "cherL1Bridge",
      "outputs": [
        {
          "internalType": "contract OvmL1Bridge",
          "name": "",
          "type": "address"
        }
      ],
      "stateMutability": "view",
      "type": "function"
    },
    {
      "inputs": [],
      "name": "inkL1Bridge",
      "outputs": [
        {
          "internalType": "contract OvmL1Bridge",
          "name": "",
          "type": "address"
        }
      ],
      "stateMutability": "view",
      "type": "function"
    },
    {
      "inputs": [],
      "name": "lineaL1MessageService",
      "outputs": [
        {
          "internalType": "contract LineaL1MessageService",
          "name": "",
          "type": "address"
        }
      ],
      "stateMutability": "view",
      "type": "function"
    },
    {
      "inputs": [],
      "name": "liskL1Bridge",
      "outputs": [
        {
          "internalType": "contract OvmL1Bridge",
          "name": "",
          "type": "address"
        }
      ],
      "stateMutability": "view",
      "type": "function"
    },
    {
      "inputs": [],
      "name": "modeL1Bridge",
      "outputs": [
        {
          "internalType": "contract OvmL1Bridge",
          "name": "",
          "type": "address"
        }
      ],
      "stateMutability": "view",
      "type": "function"
    },
    {
      "inputs": [],
      "name": "optimismL1Bridge",
      "outputs": [
        {
          "internalType": "contract OvmL1Bridge",
          "name": "",
          "type": "address"
        }
      ],
      "stateMutability": "view",
      "type": "function"
    },
    {
      "inputs": [],
      "name": "polygonL1Bridge",
      "outputs": [
        {
          "internalType": "contract PolygonL1Bridge",
          "name": "",
          "type": "address"
        }
      ],
      "stateMutability": "view",
      "type": "function"
    },
    {
      "inputs": [],
      "name": "redstoneL1Bridge",
      "outputs": [
        {
          "internalType": "contract OvmL1Bridge",
          "name": "",
          "type": "address"
        }
      ],
      "stateMutability": "view",
      "type": "function"
    },
    {
      "inputs": [],
      "name": "weth",
      "outputs": [
        {
          "internalType": "contract Weth",
          "name": "",
          "type": "address"
        }
      ],
      "stateMutability": "view",
      "type": "function"
    },
    {
      "inputs": [],
      "name": "worldChainL1Bridge",
      "outputs": [
        {
          "internalType": "contract OvmL1Bridge",
          "name": "",
          "type": "address"
        }
      ],
      "stateMutability": "view",
      "type": "function"
    },
    {
      "inputs": [],
      "name": "zkSyncL1Bridge",
      "outputs": [
        {
          "internalType": "contract ZkSyncL1Bridge",
          "name": "",
          "type": "address"
        }
      ],
      "stateMutability": "view",
      "type": "function"
    },
    {
      "inputs": [],
      "name": "zoraL1Bridge",
      "outputs": [
        {
          "internalType": "contract OvmL1Bridge",
          "name": "",
          "type": "address"
        }
      ],
      "stateMutability": "view",
      "type": "function"
    },
    {
      "stateMutability": "payable",
      "type": "receive"
    }
  ],
  "transactionHash": "0x9318db8838759e021567d93c26e4320285c3d603cec590ab6966bf97f7a5d4f5",
  "args": [],
  "numDeployments": 1,
  "solcInputHash": "c704b7dd9dde90da1811337714ae187e",
  "bytecode": "0x61026080604052346102985773c02aaa39b223fe8d0a0e5c4f27ead9083c756cc26080527399c9fc46f92e8a1c0dec1b1747d010903e884be160a05273735adbbe72226bd52e818e7181953f42e3b0ff2160c05273dc1664458d2f0b6090bea60a8793a4e66c2f1c0060e05261010090733154cf16ccdb4c6d922629664174b904d80f2c35825261012073eb9bf100225c214efc3e7c651ebbadcf8517760781526101407388ff1e5b602916615391f55854588efcbb7663f08152610160732658723bf70c7667de6b25f99fcce13a16d25d08815261018073c473ca7e02af24c129c2eef51f2adf0411c1df6981526101a073697402166fbf2f22e970df8a6486ef171dbfc52481526101c09073470458c91978d2d929704489ad730dc3e300111382526101e092733e2ea9b92b7e48a52296fd261dc26fd99528463184526102009473a0c68c638235ee32657e8f720a23cec1bfc77c778652610220967332400084c286cf3e17e7b677ea9583e60a00032488526102409873d19d4b5d358258f05d7b411e21a1460d11b0876f8a52611a619b8c61029d8d396080518c81816101dc01528181610de5015281816111ed01528181611263015261157d015260a0518c81816102b50152610b40015260c0518c81816104910152610fc2015260e0518c81816109b901526119690152518b81816103c30152610cfc0152518a8181610721015261117e0152518981816105d90152610c8d015251888181610149015261067d01525187818161086a0152610d6b0152518681816107c60152611031015251858181610535015261147401525184818161090f015261110f015251838181610baf0152610eb60152518281816110a00152818161153d015281816116730152611732015251818181610c1e01526113340152f35b5f80fdfe6080806040526004908136101561001d575b5050361561001b57005b005b5f915f3560e01c918263019f8e811461192157508163128d5f68146114985781632a8ecb131461142957816336918a97146112115781633fc8cef3146111a25781634711149e146111335781634fbf95d7146110c45781635970eafa1461105557816362c8eb5c14610fe6578163645b6f1114610f7757828263b3d5ccc314610d8f57508163b6865d6e14610d20578163b745c3f314610cb1578163b9597e5914610c42578163c04b953414610bd3578163c80dcc3814610b64578163d3cdc8f914610af5578163e88650c414610170575063f43873c4146100ff5780610011565b3461016d57807ffffffffffffffffffffffffffffffffffffffffffffffffffffffffffffffffc36011261016d57602060405173ffffffffffffffffffffffffffffffffffffffff7f0000000000000000000000000000000000000000000000000000000000000000168152f35b80fd5b905034610af15760807ffffffffffffffffffffffffffffffffffffffffffffffffffffffffffffffffc360112610af1576101a961198d565b604435916024359163ffffffff841684036103a457846064359473ffffffffffffffffffffffffffffffffffffffff93847f000000000000000000000000000000000000000000000000000000000000000016803b156103b357604080517f23b872dd0000000000000000000000000000000000000000000000000000000081523384820190815230602082015291820189905290859082908190606001038183865af1908115610ae6578591610ad2575b5050803b156103b3578380916024604051809481937f2e1a7d4d0000000000000000000000000000000000000000000000000000000083528c888401525af1908115610ac7578491610aaf575b5050600a87036103b757847f00000000000000000000000000000000000000000000000000000000000000001691823b156103b35761034d9285888694604051968795869485937f9a2ac6d500000000000000000000000000000000000000000000000000000000855284019060809273ffffffffffffffffffffffffffffffffffffffff63ffffffff92168352166020820152606060408201525f60608201520190565b03925af180156103a857610390575b50505b60405192835216917fcde53d24289bf7d0b2baeea6140c533d8388fb574b055364d718f637bedea7a460203393a480f35b610399906119b0565b6103a457845f61035c565b8480fd5b6040513d84823e3d90fd5b8380fd5b612105870361048557847f00000000000000000000000000000000000000000000000000000000000000001691823b156103b35761045b9285888694604051968795869485937f9a2ac6d500000000000000000000000000000000000000000000000000000000855284019060809273ffffffffffffffffffffffffffffffffffffffff63ffffffff92168352166020820152606060408201525f60608201520190565b03925af180156103a857610471575b505061035f565b61047a906119b0565b6103a457845f61046a565b61868b870361052957847f00000000000000000000000000000000000000000000000000000000000000001691823b156103b35761045b9285888694604051968795869485937f9a2ac6d500000000000000000000000000000000000000000000000000000000855284019060809273ffffffffffffffffffffffffffffffffffffffff63ffffffff92168352166020820152606060408201525f60608201520190565b6101e087036105cd57847f00000000000000000000000000000000000000000000000000000000000000001691823b156103b35761045b9285888694604051968795869485937f9a2ac6d500000000000000000000000000000000000000000000000000000000855284019060809273ffffffffffffffffffffffffffffffffffffffff63ffffffff92168352166020820152606060408201525f60608201520190565b61def1870361067157847f00000000000000000000000000000000000000000000000000000000000000001691823b156103b35761045b9285888694604051968795869485937f9a2ac6d500000000000000000000000000000000000000000000000000000000855284019060809273ffffffffffffffffffffffffffffffffffffffff63ffffffff92168352166020820152606060408201525f60608201520190565b61046f870361071557847f00000000000000000000000000000000000000000000000000000000000000001691823b156103b35761045b9285888694604051968795869485937f9a2ac6d500000000000000000000000000000000000000000000000000000000855284019060809273ffffffffffffffffffffffffffffffffffffffff63ffffffff92168352166020820152606060408201525f60608201520190565b61074c87036107b957847f00000000000000000000000000000000000000000000000000000000000000001691823b156103b35761045b9285888694604051968795869485937f9a2ac6d500000000000000000000000000000000000000000000000000000000855284019060809273ffffffffffffffffffffffffffffffffffffffff63ffffffff92168352166020820152606060408201525f60608201520190565b62013e31870361085e57847f00000000000000000000000000000000000000000000000000000000000000001691823b156103b35761045b9285888694604051968795869485937f9a2ac6d500000000000000000000000000000000000000000000000000000000855284019060809273ffffffffffffffffffffffffffffffffffffffff63ffffffff92168352166020820152606060408201525f60608201520190565b6102b2870361090257847f00000000000000000000000000000000000000000000000000000000000000001691823b156103b35761045b9285888694604051968795869485937f9a2ac6d500000000000000000000000000000000000000000000000000000000855284019060809273ffffffffffffffffffffffffffffffffffffffff63ffffffff92168352166020820152606060408201525f60608201520190565b6276adf187036109a757847f00000000000000000000000000000000000000000000000000000000000000001691823b156103b35761045b9285888694604051968795869485937f9a2ac6d500000000000000000000000000000000000000000000000000000000855284019060809273ffffffffffffffffffffffffffffffffffffffff63ffffffff92168352166020820152606060408201525f60608201520190565b9091506101208603610a5157908691847f00000000000000000000000000000000000000000000000000000000000000001691823b156103b35761045b9285888694604051968795869485937f9a2ac6d500000000000000000000000000000000000000000000000000000000855284019060809273ffffffffffffffffffffffffffffffffffffffff63ffffffff92168352166020820152606060408201525f60608201520190565b6064906020604051917f08c379a0000000000000000000000000000000000000000000000000000000008352820152601360248201527f496e76616c6964204f564d20636861696e4964000000000000000000000000006044820152fd5b610ab8906119b0565b610ac357825f6102a8565b8280fd5b6040513d86823e3d90fd5b610adb906119b0565b6103b357835f61025b565b6040513d87823e3d90fd5b5080fd5b823461016d57807ffffffffffffffffffffffffffffffffffffffffffffffffffffffffffffffffc36011261016d57602060405173ffffffffffffffffffffffffffffffffffffffff7f0000000000000000000000000000000000000000000000000000000000000000168152f35b823461016d57807ffffffffffffffffffffffffffffffffffffffffffffffffffffffffffffffffc36011261016d57602060405173ffffffffffffffffffffffffffffffffffffffff7f0000000000000000000000000000000000000000000000000000000000000000168152f35b823461016d57807ffffffffffffffffffffffffffffffffffffffffffffffffffffffffffffffffc36011261016d57602060405173ffffffffffffffffffffffffffffffffffffffff7f0000000000000000000000000000000000000000000000000000000000000000168152f35b823461016d57807ffffffffffffffffffffffffffffffffffffffffffffffffffffffffffffffffc36011261016d57602060405173ffffffffffffffffffffffffffffffffffffffff7f0000000000000000000000000000000000000000000000000000000000000000168152f35b823461016d57807ffffffffffffffffffffffffffffffffffffffffffffffffffffffffffffffffc36011261016d57602060405173ffffffffffffffffffffffffffffffffffffffff7f0000000000000000000000000000000000000000000000000000000000000000168152f35b823461016d57807ffffffffffffffffffffffffffffffffffffffffffffffffffffffffffffffffc36011261016d57602060405173ffffffffffffffffffffffffffffffffffffffff7f0000000000000000000000000000000000000000000000000000000000000000168152f35b915034610f745760407ffffffffffffffffffffffffffffffffffffffffffffffffffffffffffffffffc360112610f7457610dc861198d565b6024359073ffffffffffffffffffffffffffffffffffffffff90817f000000000000000000000000000000000000000000000000000000000000000016803b15610f3257604080517f23b872dd0000000000000000000000000000000000000000000000000000000081523387820190815230602082015291820186905290879082908190606001038183865af1908115610f69578791610f55575b5050803b15610f32578580916024604051809481937f2e1a7d4d000000000000000000000000000000000000000000000000000000008352898b8401525af1908115610f4a578691610f36575b5050817f00000000000000000000000000000000000000000000000000000000000000001690813b15610f3257859360249260405196879586947f4faa8a2600000000000000000000000000000000000000000000000000000000865216908401525af180156103a857610f225750f35b610f2b906119b0565b61016d5780f35b8580fd5b610f3f906119b0565b6103a457845f610eb1565b6040513d88823e3d90fd5b610f5e906119b0565b610f3257855f610e64565b6040513d89823e3d90fd5b50fd5b823461016d57807ffffffffffffffffffffffffffffffffffffffffffffffffffffffffffffffffc36011261016d57602060405173ffffffffffffffffffffffffffffffffffffffff7f0000000000000000000000000000000000000000000000000000000000000000168152f35b823461016d57807ffffffffffffffffffffffffffffffffffffffffffffffffffffffffffffffffc36011261016d57602060405173ffffffffffffffffffffffffffffffffffffffff7f0000000000000000000000000000000000000000000000000000000000000000168152f35b823461016d57807ffffffffffffffffffffffffffffffffffffffffffffffffffffffffffffffffc36011261016d57602060405173ffffffffffffffffffffffffffffffffffffffff7f0000000000000000000000000000000000000000000000000000000000000000168152f35b823461016d57807ffffffffffffffffffffffffffffffffffffffffffffffffffffffffffffffffc36011261016d57602060405173ffffffffffffffffffffffffffffffffffffffff7f0000000000000000000000000000000000000000000000000000000000000000168152f35b823461016d57807ffffffffffffffffffffffffffffffffffffffffffffffffffffffffffffffffc36011261016d57602060405173ffffffffffffffffffffffffffffffffffffffff7f0000000000000000000000000000000000000000000000000000000000000000168152f35b823461016d57807ffffffffffffffffffffffffffffffffffffffffffffffffffffffffffffffffc36011261016d57602060405173ffffffffffffffffffffffffffffffffffffffff7f0000000000000000000000000000000000000000000000000000000000000000168152f35b905060407ffffffffffffffffffffffffffffffffffffffffffffffffffffffffffffffffc360112610af15761124561198d565b826024359173ffffffffffffffffffffffffffffffffffffffff90817f000000000000000000000000000000000000000000000000000000000000000016803b156103b357604080517f23b872dd0000000000000000000000000000000000000000000000000000000081523388820190815230602082015291820187905290859082908190606001038183865af1908115610ae6578591611415575b5050803b156103b3578380916024604051809481937f2e1a7d4d0000000000000000000000000000000000000000000000000000000083528a8c8401525af1908115610ac7578491611401575b5050817f0000000000000000000000000000000000000000000000000000000000000000169161135f34866119f1565b833b156103a457849260849160405195869485937f9f3ce55a00000000000000000000000000000000000000000000000000000000855216809a840152346024840152606060448401528560648401525af180156103a8576113ed575b50506040519081527f61ed67a945fe5f4d777919629ad666c7e81d66dc5fbaf4c143edd000c15d67dd60203392a380f35b6113f6906119b0565b610ac357825f6113bc565b61140a906119b0565b610ac357825f61132f565b61141e906119b0565b6103b357835f6112e2565b823461016d57807ffffffffffffffffffffffffffffffffffffffffffffffffffffffffffffffffc36011261016d57602060405173ffffffffffffffffffffffffffffffffffffffff7f0000000000000000000000000000000000000000000000000000000000000000168152f35b82346118b55760a07ffffffffffffffffffffffffffffffffffffffffffffffffffffffffffffffffc3601126118b5576114d061198d565b602490604435906064359460843573ffffffffffffffffffffffffffffffffffffffff938482168092036118b5576040517fb473318e0000000000000000000000000000000000000000000000000000000081523a848201528187820152886044820152602081606481897f0000000000000000000000000000000000000000000000000000000000000000165afa80156118aa575f906118b9575b61157991508735906119f1565b91857f000000000000000000000000000000000000000000000000000000000000000016803b156118b557604080517f23b872dd00000000000000000000000000000000000000000000000000000000815233878201908152306020820152918201869052905f9082908190606001038183865af180156118aa57611897575b50803b156118935788809189604051809481937f2e1a7d4d000000000000000000000000000000000000000000000000000000008352898b8401525af1801561188857908991611874575b505060405191602083019280841067ffffffffffffffff85111761184957899a8460409b98999a9b52878252897f0000000000000000000000000000000000000000000000000000000000000000163b156118455760409a989695949a99979951957feb6724190000000000000000000000000000000000000000000000000000000087528888169087015288358987015260e060448701528960e48701526101048601926064870152608486015261010060a48601525180915261012490818501918160051b860101999189905b8282106117a7575050505082809281808b8b979560c4899701520391887f0000000000000000000000000000000000000000000000000000000000000000165af180156103a857611793575b50506040519235835216907fa3e601130860a6f97b42655ad74f631ddf0c8e5adaa98402fded9c09bc35a44060203392a380f35b61179c906119b0565b6103b357838561175f565b7ffffffffffffffffffffffffffffffffffffffffffffffffffffffffffffffedc878d969596030181528b855180518092528c5b82811061182f575050808d0160209081018d9052601f919091017fffffffffffffffffffffffffffffffffffffffffffffffffffffffffffffffe016909c018c019b93948401936001929092019101611713565b808f6020828180958701015192010152016117db565b8780fd5b886041877f4e487b71000000000000000000000000000000000000000000000000000000005f52525ffd5b61187d906119b0565b61184557878a611644565b6040513d8b823e3d90fd5b8880fd5b6118a29199506119b0565b5f978a6115f9565b6040513d5f823e3d90fd5b5f80fd5b5060203d60201161191a575b7fffffffffffffffffffffffffffffffffffffffffffffffffffffffffffffffe0601f820116820182811067ffffffffffffffff821117611849576020918391604052810103126118b557611579905161156c565b503d6118c5565b346118b5575f7ffffffffffffffffffffffffffffffffffffffffffffffffffffffffffffffffc3601126118b55760209073ffffffffffffffffffffffffffffffffffffffff7f0000000000000000000000000000000000000000000000000000000000000000168152f35b6004359073ffffffffffffffffffffffffffffffffffffffff821682036118b557565b67ffffffffffffffff81116119c457604052565b7f4e487b71000000000000000000000000000000000000000000000000000000005f52604160045260245ffd5b919082018092116119fe57565b7f4e487b71000000000000000000000000000000000000000000000000000000005f52601160045260245ffdfea26469706673582212206051d0f7a9ef902c24e077ec0f2ab8a6ce25702c0983c1504160d015e1ea4b9564736f6c63430008170033"
}